:020000040800F2
:10000000280E0020852701087107010873070108E1
:10001000750701087707010879070108000000004B
:100020000000000000000000000000007B07010845
:100030007D070108000000007F0701088107010813
:10004000A1290108A5290108A9290108AD2901084C
:10005000B12901088D070108B5290108B92901084E
:10006000BD290108C1290108C5290108C9290108BC
:10007000CD290108D1290108D5290108D92901086C
:10008000DD290108E1290108E5290108E92901081C
:100090008F070108ED290108F1290108F529010858
:1000A000F9290108FD290108012A0108052A01088A
:1000B000092A01080D2A0108112A0108152A010838
:1000C000192A01081D2A0108212A0108252A0108E8
:1000D000292A01082D2A0108312A0108352A010898
:1000E000392A01083D2A0108412A0108452A010848
:1000F000492A01084D2A0108512A0108552A0108F8
:10010000592A01085D2A010899070108612A010896
:10011000652A0108692A01086D2A0108712A010867
:10012000752A0108792A01087D2A0108812A010817
:10013000852A0108892A01088D2A0108912A0108C7
:10014000952A0108992A01089D2A0108A12A010877
:10015000A52A0108A92A0108AD2A0108B12A010827
:10016000B52A0108B92A0108BD2A0108C12A0108D7
:10017000C52A0108C92A0108CD2A0108000000008B
:10018000D12A0108D52A01087CB504000D00606958
:10019000408880B200280AD0A1694988582202FB11
:1001A000054292F8282012FA80F2914200DA92E099
:1001B0006168582202FB054292F8282012FA80F06A
:1001C00051F83000C06A066800200190DFF82C0C5E
:1001D000009041F601239622DFF8781DDFF8780DB4
:1001E00004F008FFF6B20196DFF8140C009042F616
:1001F00002239722DFF85C1DDFF85C0D04F0FAFEA5
:10020000582000FB0540008E0190DFF8F80B0090AD
:1002100042F602239822DFF83C1DDFF83C0D04F083
:10022000E9FE582000FB054090F832000190DFF80D
:10023000D80B009042F602239922DFF8181DDFF850
:10024000180D04F0D7FE5FF0FF30582101FB054187
:10025000A1F87A008520582101FB054181F82A0088
:10026000DFF8F80C0190582000FB054090F83200B0
:100270000090582000FB0540038E582000FB0540ED
:1002800090F82820582000FB054090F82910200005
:1002900000F0BCFDDFF8C40C582101FB0541C86229
:1002A000582000FB0540C06F002807D03100C9B2BC
:1002B0002000582202FB0542D26F9047582000FBD5
:1002C0000540C06ADFF8941C884204D12900C9B2F5
:1002D000200000F0FBFA73BD38B50400002505E0EE
:1002E0002900C9B2200000F0F1FA6D1CEDB2052D15
:1002F000F6DB31BD30B585B004000D00EDB20195DF
:10030000DFF85C0C009043F60823D222DFF8441C8F
:10031000DFF8440C04F06EFEEDB2582000FB0540FF
:10032000406B002809D1EDB2582000FB0540806BDE
:10033000EDB2582101FB05414863EDB2582000FBA6
:100340000540406B03900398212819D301200290A7
:100350000120019003A80090EDB2582000FB054059
:10036000C36DEDB2582000FB054090F83220EDB28D
:10037000582000FB0540018E200004F0B4FF19E076
:10038000012002900120019003A80090EDB25820B6
:1003900000FB054010F13C03EDB2582000FB054086
:1003A00090F83220EDB2582000FB0540018E20006D
:1003B00004F099FF00280ED1EDB20195DFF8A40BEF
:1003C000009043F60823EA22DFF8881BDFF8880B49
:1003D00004F010FE002005B030BD70B586B00400FA
:1003E0000D0020200590EDB2582000FB0540008E46
:1003F0000190DFF8740B009043F60523FD22DFF82F
:10040000541BDFF8540B04F0F5FDEDB2582000FB4F
:10041000054090F832000190DFF8500B009043F651
:100420000623FE22DFF82C1BDFF82C0B04F0E2FD84
:10043000012003900120029004A8019005A80090DB
:10044000EDB2582000FB054010F13C03EDB25820FE
:1004500000FB054090F83220EDB2582000FB05402B
:10046000018E200004F097FE0600DFF8040B8642A0
:1004700038D10598B0F5806F34D8059806F006FAA3
:10048000EDB2582101FB0541C865EDB2582000FBD3
:100490000540C06D002825D00598EDB2582101FB1C
:1004A00005410866012003900120029004A80190F4
:1004B000EDB2582000FB054060300090EDB25820AE
:1004C00000FB0540C36DEDB2582000FB054090F8DD
:1004D0003220EDB2582000FB0540018E200004F0D0
:1004E0005AFE0600002E01D030000CE00598EDB257
:1004F000582101FB054148630020EDB2582101FB62
:1005000005418863002006B070BDF0B583B0C9B264
:10051000582404FB0104646BC9B2582505FB01058E
:10052000AD6B5519AC420FD20192DFF8480A00902A
:1005300041F6112340F23D12DFF8181ADFF8180ACD
:1005400004F058FDFF2050E0C9B2582404FB010418
:10055000A46BC9B2582505FB01056D6B212D10D286
:100560000025EDB2954234D2C9B2582606FB0106E9
:1005700054FA85F7BE1996F83C60EDB2EE546D1C46
:10058000EFE7C9B2582505FB0105ED6D002D10D12F
:10059000C9B20191DFF8E009009041F6112340F261
:1005A0004B12DFF8B019DFF8B00904F023FDFF208B
:1005B0001BE000250AE0C9B2582606FB0106F66DCD
:1005C00054FA85F7BE5DEDB2EE546D1CEDB2954266
:1005D000F1D3C9B2582303FB01039B6BD218C9B2F4
:1005E000582303FB010082630020FEBD2DE9F04388
:1005F00083B004000D0016001F00EDB2582000FB70
:100600000540D0F83880EDB2582000FB054010F1CD
:100610003C01EDB2582000FB0540806B30182128CA
:10062000C0F08B80EDB2582000FB0540C06D002863
:1006300039D14FF4806006F029F9EDB2582101FB61
:100640000541C8654FF48060EDB2582101FB0541BA
:100650000866EDB2582000FB0540C06D002811D19E
:100660004FF480600190DFF81409009041F61523E3
:100670004FF4BC72DFF8DC18DFF8DC0804F0BAFCD9
:10068000FF2071E0EDB2582000FB054010F13C0165
:10069000EDB2582000FB0540D0F85C904246484639
:1006A00006F0A4FE44E0EDB2582000FB0540006EC9
:1006B000EDB2582101FB0541896B7118884237D290
:1006C000EDB2582000FB0540006E10F58061EDB2E0
:1006D000582000FB0540C06D06F046FE002816D1EC
:1006E000EDB2582000FB0540006E10F580600190CF
:1006F000DFF88C08009041F615234FF4C172DFF843
:100700005418DFF8540804F075FCFF202CE0EDB21B
:10071000582101FB0541C865EDB2582000FB05409A
:10072000006E10F58060EDB2582101FB05410866AE
:10073000EDB2582000FB0540C16D002005E0C0B2BD
:10074000C25D58FA80F35A54401CC0B2B042F6D38E
:10075000EDB2582000FB0540806B3018EDB25821F7
:1007600001FB054188630020BDE8FE832DE9FE43BF
:1007700004000D0016001F0002AB3200D2B22900A7
:10078000C9B2200000F0EAF980465FFA88F8B8F1B3
:10079000000F0FD19DF808000190DFF8E8070090E6
:1007A00043F620234FF4D572DFF8A817DFF8A80727
:1007B00004F020FC5FFA88F8B8F1000F17D1F6B208
:1007C000012E14D19DF80810200000F07FF89DF84C
:1007D00008000190DFF8B007009043F6212340F2B3
:1007E000AD12DFF87017DFF8700704F003FCDDF8D6
:1007F0002C905FFA88F8B8F1000F31D1F6B2022ED2
:100800002ED19DF808000190DFF88007009043F694
:1008100005234FF4D872DFF83C17DFF83C0704F0EB
:10082000E9FB9DF80800582101FB0040B0F97A006F
:1008300006F079FE9DF80810582202FB0141A1F84C
:100840007A0085209DF80810582202FB014181F8AA
:100850002A009DF80800582101FB0040C0F82C90A8
:1008600000200190DFF82807009043F622234FF480
:10087000DA72DFF8E016DFF8E00604F0BBFBCDF833
:1008800004900A9800903B009BB22A00D2B231003B
:10089000C9B2200000F0BAFA80465FFA88F8B8F1D1
:1008A000000F10D000200190DFF8E806009043F61A
:1008B000232340F2B712DFF89C16DFF89C0604F001
:1008C00099FBFF2000E00020BDE8FE8330B583B037
:1008D00004000D00EDB20195DFF8BC06009043F670
:1008E00025234FF4E372DFF86C16DFF86C0604F092
:1008F00081FB0020019000200090002300222900AD
:10090000C9B2200000F01BF8002008E0EDB2582129
:1009100001FB05414118002281F83C20401C2028A1
:10092000F4D30020EDB2582101FB054181F82900E4
:100930000020EDB2582101FB0541C86237BD2DE909
:10094000FC4105000E0017009846F6B20196DFF84C
:100950004C06009043F625234FF4EE72DFF8F415B1
:10096000DFF8F40504F046FB099CE4B2022C08D041
:10097000E4B2032C05D0E4B2042C02D0E4B2052C7E
:1009800020D1F6B20196DFF81806009043F6062350
:1009900040F2DF12DFF8BC15DFF8BC0504F02AFBDB
:1009A00000200090DFF8FC35DFF8FC25F6B23100BE
:1009B000280006F057FDF6B2582101FB0651A1F8B8
:1009C0007A001CE0F6B20196DFF8C005009043F60D
:1009D000052340F2E112DFF87C15DFF87C0504F016
:1009E00009FBF6B2582000FB0650B0F97A0006F079
:1009F0009AFDF6B2582101FB0651A1F87A00F6B231
:100A0000582000FB065080F82870F6B2582000FBF2
:100A10000650A0F830800898F6B2582101FB065124
:100A200081F83200F6B2582000FB065080F82A40C8
:100A30000020F6B2582101FB065181F82B0000205E
:100A4000F6B2582101FB065148630020F6B2582146
:100A500001FB065188630020F6B2582101FB0651C4
:100A600081F864000020F6B2582101FB065181F89C
:100A700065000020F6B2582101FB065181F866009E
:100A80000020F6B2582101FB065188660020F6B21C
:100A9000582101FB065181F86C000020F6B2582164
:100AA00001FB065181F86D000020F6B2582101FBD0
:100AB000065181F86E000020F6B2582101FB065164
:100AC00081F86F000020F6B2582101FB065181F831
:100AD00078000020F6B2582101FB0651C867F6B233
:100AE000582000FB0650C06D06F02BF80020F6B22F
:100AF000582101FB0651C8650020F6B2582101FBC0
:100B0000065108660020BDE8F6811CB5002300E010
:100B10005B1CDBB2052B10DADBB2582404FB0304A8
:100B200094F82A40002CF3D11370DBB2582202FB58
:100B3000030080F8291000200FE0DBB20193DFF8FA
:100B40006C04009041F6252340F21122DFF80414D2
:100B5000DFF8040404F04EFAFF2016BD30B4002480
:100B600000E0641CE4B2052C26DAE4B2582505FB4B
:100B7000040595F82A50002DF3D0E4B2582505FB62
:100B8000040595F82A50852DEBD0E4B2582505FBD5
:100B9000040595F82850C9B28D42E2D1E4B2582537
:100BA00005FB040595F82950D2B29542D9D1002B06
:100BB00000D01C70002000E0FF2030BC704730B433
:100BC000002400E0641CE4B2052C1EDAE4B25825CF
:100BD00005FB040595F82A50002DF3D0E4B2582502
:100BE00005FB040595F82850C9B28D42EAD1E4B25C
:100BF000582505FB040595F82950D2B29542E1D15C
:100C0000002B00D01C70002000E0FF2030BC70479B
:100C10003EB504001500C9B2200003F00DFFC0B2BC
:100C2000FE2801DB85201FE002AB2A00D2B20100C2
:100C3000C9B22000FFF7C3FFC0B200280ED00020C9
:100C40000190DFF86C03009042F6302340F25F22FF
:100C5000C049C14804F0CEF9FF2005E09DF8081016
:100C60002000FFF733FE00203EBD10B4C9B2582368
:100C700003FB01035B6B002B02D1002010600BE033
:100C8000C9B2582303FB01035B6BC9B2582404FBB0
:100C90000100806B181A1060002010BC7047C9B2A8
:100CA000582303FB0100426300207047F0B585B074
:100CB00004000F0016001D0000200190BD480090A8
:100CC00043F6382340F29F22A249A34804F092F948
:100CD00094F9E001052812D094F9E0017F280ED0A4
:100CE00094F9E0010190B448009042F6392340F2B3
:100CF000A1229849984804F07DF9FF207CE0FFB2DA
:100D0000012F31D16069008880B2002806D0A16926
:100D10000988F6B216FA80F291420DDA00200190AD
:100D2000A648009041F6422340F2A92289498A4808
:100D300004F060F9FF205FE06168F6B216FA80F017
:100D400051F83000006A0068ADF80800BDF80800EE
:100D500001909B48009043F6412340F2AD227D492B
:100D60007D4804F047F930E06069408880B200288F
:100D700006D0A1694988F6B216FA80F291420DDADE
:100D8000002001908F48009041F6422340F2B322A8
:100D90007049714804F02EF9FF202DE06168F6B229
:100DA00016FA80F051F8300040690068ADF808008C
:100DB000BDF8080001908448009043F6412340F2BA
:100DC000B7226449644804F015F900208DF80A0040
:100DD00008208DF80B00002006E0C0B2415D02AA99
:100DE000C0B282181171401CC0B20828F5DB02A9FC
:100DF000D4F8B80206F0D4FC05B0F0BD70120108BA
:100E00004C24010860240108742401082DE9FF41E5
:100E100004000D00160098460B9F01975C48009057
:100E200042F6502340F2D3224A494B4804F0E2F8FC
:100E300080208DF8080040468DF809001FFA88F8D8
:100E40005FEA18208DF80A000A988DF80B000197C8
:100E50005E480090002340F2DB223E493E4804F009
:100E6000C9F838008DF80C00380A8DF80D00380CE0
:100E70008DF80E00380E8DF80F009DF808000190D7
:100E80005348009000234FF438723249324804F03E
:100E9000B1F89DF8090001904E480090002340F2FF
:100EA000E1222C492C4804F0A5F89DF80A00019095
:100EB00049480090002340F2E2222649264804F0E7
:100EC00099F89DF80B00019044480090002340F2EF
:100ED000E3222049204804F08DF89DF80C00019091
:100EE0003F48009000234FF439721A491A4804F021
:100EF00081F89DF80D0001903A480090002340F2DF
:100F0000E5221449144804F075F89DF80E0001908C
:100F100035480090002340F2E6220E490E4804F0C6
:100F200069F89DF80F00019030480090002340F2CE
:100F3000E7220849084804F05DF802AB3200D2B25B
:100F40002900C9B22000FFF7B1FEC0B204B0BDE86D
:100F5000F0810000DCF70008B01D01080000040566
:100F6000CC1D0108E81D0108AC2101086426010818
:100F700005000405580F0108840F0108B00F01088F
:100F8000F80A0108041E0108E8180108201E0108DB
:100F90008824010808190108C42101089C240108BB
:100FA0003C1E0108C0C62D00890100083C1601083E
:100FB000281901085C290108680901084819010875
:100FC000DC21010868190108F421010874260108D0
:100FD000E8270108F4270108002801080C28010867
:100FE0001828010824280108302801083C28010895
:100FF0002DE9F04F89B004000D0000265FF00308D2
:10100000002006900020079000200190DFF8740E69
:10101000009043F6602340F20F32DFF86C1EDFF8D9
:101020006C0E03F0E7FF5FF003086069B0F800B0F2
:10103000A0690088ADF80A0000208DF809001FFAA9
:101040008BFBCDF804B0DFF8480E009043F6602328
:1010500040F21632DFF8301EDFF8300E03F0CAFF20
:10106000BDF80A000190DFF82C0E009043F66023D3
:1010700040F21732DFF8101EDFF8100E03F0BAFF4F
:101080001FFA8BFBBBF1000F18D1DCE09DF80900C3
:10109000401C8DF809001BF1010B1FFA8BFBCDF8EA
:1010A00004B0DFF8F40D009043F660234FF44C7267
:1010B000DFF8D41DDFF8D40D03F09CFFBDF80A0063
:1010C0001FFA8BFB5845C0F0BE8060681FFA8BFB8F
:1010D00010EBCB0000790190DFF8C00D009043F6D3
:1010E000602340F21932DFF8A01DDFF8A00D03F0F5
:1010F00081FF1FFA8BFBCDF804B0DFF8940D009050
:1011000043F6602340F21A32DFF87C1DDFF87C0DD5
:1011100003F070FF60681FFA8BFB10EBCB000079C7
:10112000022814DA9DF8090010F590500190DFF8BC
:10113000700D009041F661234FF44772DFF8481DAF
:10114000DFF8480D03F056FFFF2000F00EBD606889
:101150001FFA8BFB50F83B004069069060681FFA4D
:101160008BFB50F83B00006A079060681FFA8BFB0E
:1011700010EBCB00C0880190DFF84C0E009043F6D6
:10118000602340F22232DFF8001DDFF8000D03F08B
:1011900031FF069800680190DFF8300E009043F6AA
:1011A000602340F22332DFF8E01CDFF8E00C03F0AC
:1011B00021FF079800680190DFF8140E009043F6B5
:1011C00060234FF44972DFF8C01CDFF8C00C03F055
:1011D00011FF28880190DFF8FC0D009043F6602392
:1011E00040F22532DFF8A01CDFF8A00C03F002FF6C
:1011F00028880190DFF8E00D009043F6602340F26C
:101200002632DFF8841CDFF8840C03F0F3FE069826
:101210000068298888427FF439AF5FF001089DF8A3
:10122000090010F590500190DFF8B00D009043F6E2
:10123000622340F22932DFF8501CDFF8500C03F033
:10124000D9FE9DF809705FFA88F8CDF80480DFF8C0
:10125000900D0090002340F23232DFF82C1CDFF8B2
:101260002C0C03F0C7FE5FFA88F8B8F1030F40F0CA
:10127000CB806069B0F802B0A0694088ADF80A0080
:1012800000208DF8090000200190DFF8580D009033
:1012900000234FF44E72DFF8F01BDFF8F00B03F081
:1012A000A9FE1FFA8BFBCDF804B0DFF8E40B009029
:1012B000002340F23932DFF8D01BDFF8D00B03F007
:1012C00099FEBDF80A000190DFF8C80B00900023DA
:1012D00040F23A32DFF8B01BDFF8B00B03F08AFEC1
:1012E0001FFA8BFBBBF1000F40F08E8006E09DF8EB
:1012F0000900401C8DF809001BF1010BBDF80A0024
:101300001FFA8BFB5845C0F07F8060681FFA8BFB8B
:1013100010EBCB000079042814DA9DF8090010F5D1
:1013200094500190DFF8C00C009041F6632340F226
:101330003D32DFF8541BDFF8540B03F05BFEFF2057
:1013400000F013BC60681FFA8BFB50F83B00006A8A
:101350000690069800680190DFF8900C009000233A
:1013600040F24232DFF8201BDFF8200B03F042FE90
:1013700028880190DFF8780C0090002340F2433277
:10138000DFF8041BDFF8040B03F034FE288801901B
:10139000DFF8600C009000234FF45172DFF8E81A78
:1013A000DFF8E80A03F026FE0698006829888842DC
:1013B0009DD15FF002089DF8090010F5945001904E
:1013C000DFF8240E009043F6642340F24732DFF842
:1013D000B81ADFF8B80A03F00DFE9DF809706068CE
:1013E0001FFA8BFB50F83B00C06A0678F6B20196F4
:1013F000DFF8F80D009000234FF45372DFF8881ADD
:10140000DFF8880A03F0F6FD5FFA88F8CDF804806B
:10141000DFF8CC0B0090002340F25332DFF8681A5B
:10142000DFF8680A03F0E6FD5FFA88F8B8F1030F09
:1014300005D1DFF8BC0D03F0DDFDFF2095E3E87872
:1014400008281DD000200190DFF8A80D009041F67B
:10145000672340F25B32DFF8301ADFF8300A03F01E
:10146000C9FD5FF00060019000200090002342461B
:10147000D2B23900C9B22000FFF778F9FF2074E337
:101480005FFA88F8B8F1020F0FD1FFB20197DFF8C9
:10149000680D009043F6682340F26132DFF8E819E6
:1014A000DFF8E80903F0A6FD0EE0FFB20197DFF8D0
:1014B0004C0D009043F669234FF45972DFF8C819B8
:1014C000DFF8C80903F096FD02AB4246D2B23900FC
:1014D000C9B22000FFF742FB8346FF205FFA8BFB77
:1014E000BBF1000F21D15FFA88F8B8F1010F08D1E4
:1014F0009DF80810582202FB014191F82A10042996
:101500000DD05FFA88F8B8F1020F0ED19DF80810DF
:10151000582202FB014191F82A10052905D12879AA
:10152000802801D1042000E00620C0B2FF2802D1AB
:101530002879C0B24009C0B2002810D0022800F0BB
:101540007786C0F01583042801F0C184C1F086813C
:10155000062802F07F83C1F0558503F04EBA5FFA8A
:1015600088F8B8F1010F40F084815FFA8BFBBBF182
:10157000000F0DD19DF80800582101FB004090F8A4
:101580002A00022802D05FF0010B01E05FF0000B9F
:101590005FFA8BFBBBF1000F1DD0FFB20197DFF8A4
:1015A000600C009041F6702340F28732DFF8D818C3
:1015B000DFF8D80803F01EFDDFF8480C019000208A
:1015C000009000234246D2B23900C9B22000FFF792
:1015D000CDF8FF20C9E29DF808000190DFF8280C43
:1015E000009043F607234FF46372DFF89C18DFF88E
:1015F0009C0803F0FFFC9DF80800582101FB004007
:10160000B0F97A0010F1010F41D09DF80800019067
:10161000DFF8F80B009043F605234FF46372DFF810
:101620006818DFF8680803F0E5FC9DF80800582109
:1016300001FB0040B0F97A0005F075FF9DF8081035
:10164000582202FB0141A1F87A009DF808000190A0
:10165000DFF8BC0B009043F606234FF46372DFF80B
:101660002818DFF8280803F0C5FC00200090DFF8F8
:10167000A43BDFF8A42B9DF80810200005F0F2FE33
:101680009DF80810582202FB0141A1F87A00FFB230
:101690000197DFF8880B009043F6712340F28D32FA
:1016A000DFF8E417DFF8E40703F0A4FC9DF8080076
:1016B000582101FB0040B0F830909DF808005821F7
:1016C00001FB004090F832A09DF80800582101FB72
:1016D000004090F82B002979C1F30011C9B288426B
:1016E00023D02879C0F30010C0B20190DFF8300B8E
:1016F000009041F6722340F29232DFF88C17DFF847
:101700008C0703F077FCDFF81C0B01905FFA8AFA74
:10171000CDF800A04B469BB24246D2B23900C9B2C6
:101720002000FFF723F8FF201FE22879C0F34200D2
:10173000C0B2D0F1070005906B1D059A9DF8081006
:101740002000FEF753FF83465FFA8BFBBBF1000FCF
:1017500011D05FF0006001905FFA8AFACDF800A026
:101760004B469BB24246D2B23900C9B22000FEF7C6
:10177000FDFFFF20F9E19DF80800582101FB004022
:1017800090F82B00000150F020008DF80C00012093
:1017900003E0002103AA8154401C0828F9D3FFB2BA
:1017A0000197DFF8840A009043F6732340F2A232D7
:1017B000DFF8D416DFF8D40603F01CFC03AB3A00C4
:1017C000D2B24146C9B22000FFF770FA9DF8080076
:1017D000582101FB004090F82B00002801D1012086
:1017E00000E000209DF80810582202FB014181F81A
:1017F0002B002879C00740F1B7819DF80810200020
:10180000FEF778FD0500002D1ED000200190DFF8C6
:101810001C0A009041F654234FF46B72DFF86816EF
:10182000DFF8680603F0E6FB01955FFA8AFACDF867
:1018300000A04B469BB24246D2B23900C9B220004A
:10184000FEF794FFFF2090E19DF808102000FFF7BD
:101850003DF8FFB20197DFF8A80E009043F674231D
:1018600040F2B232DFF82016DFF8200603F0C2FBA8
:101870007AE15FFA8BFBBBF1000F0DD19DF80800F8
:10188000582101FB004090F82A00032802D05FF0A5
:10189000010B01E05FF0000B5FFA8BFBBBF1000F67
:1018A0001DD0F6B20196DFF85C0E009041F675236C
:1018B00040F2BB32DFF8D015DFF8D00503F09AFB19
:1018C000DFF8400901900020009000234246D2B288
:1018D0003900C9B22000FEF749FFFF2045E19DF81D
:1018E00008000190DFF82009009043F607234FF429
:1018F0007072DFF89415DFF8940503F07BFB9DF818
:101900000800582101FB0040B0F97A0010F1010FE6
:1019100041D09DF808000190DFF8F008009043F6F0
:1019200005234FF47072DFF86015DFF8600503F0EF
:1019300061FB9DF80800582101FB0040B0F97A00D6
:1019400005F0F1FD9DF80810582202FB0141A1F8B5
:101950007A009DF808000190DFF8B408009043F683
:1019600006234FF47072DFF82015DFF8200503F02E
:1019700041FB00200090DFF89C38DFF89C289DF8A0
:101980000810200005F06EFD9DF80810582202FB9B
:101990000141A1F87A009DF80800582101FB0040A0
:1019A000B0F830909DF80800582101FB004090F8F5
:1019B00032A09DF80800582101FB004090F82B0050
:1019C0002979C1F30011C9B2884220D0F6B201963C
:1019D000DFF8340D009041F6762340F2C532DFF88F
:1019E000A814DFF8A80403F005FBDFF8380801901D
:1019F0005FFA8AFACDF800A04B469BB24246D2B2BB
:101A00003900C9B22000FEF7B1FEFF20ADE0287911
:101A1000C0F34200C0B2D0F1070005906B1D059ADB
:101A20009DF808102000FEF7E1FD83465FFA8BFB6E
:101A3000BBF1000F11D05FF0006001905FFA8AFAED
:101A4000CDF800A04B469BB24246D2B23900C9B293
:101A50002000FEF78BFEFF2087E09DF8080058214C
:101A600001FB004090F82B00002801D1012000E08C
:101A700000209DF80810582202FB014181F82B003C
:101A80002879C00747D59DF808000190DFF87C074A
:101A9000009043F6052340F2D732DFF8EC13DFF86D
:101AA000EC0303F0A7FA9DF80800582101FB004061
:101AB000B0F97A0005F037FD9DF80810582202FBB6
:101AC0000141A1F87A0001209DF80810582202FB7C
:101AD000014181F82A009DF80800582101FB0040CF
:101AE000C06F002809D03100C9B220009DF808203D
:101AF000582303FB0242D26F9047F6B20196DFF8FB
:101B00000C0C009043F6772340F2DB32DE49DF48CD
:101B100003F070FA28E09DF80800582101FB00400E
:101B200090F82B00000150F060008DF80C000120AF
:101B300003E0002103AA8154401C0828F9D303AB19
:101B40003A00D2B24146C9B22000FFF7AFF8F6B270
:101B50000196DFF8BC0B009043F6782340F2E332A5
:101B6000C949CA4803F046FA002009B0BDE8F08F21
:101B70005FFA88F8B8F1010F40F05181A8796979CE
:101B800051EA002995F807A0FFB20197DFF8900EFF
:101B9000009043F6792340F2EF32BB49BB4803F093
:101BA00029FA1FFA89F9CDF80490DFF8780E009031
:101BB0004FF46A534FF47C72B349B44803F01AFAF5
:101BC0005FFA8AFACDF804A0DFF85C0E00904FF4BB
:101BD0006A5340F2F132AC49AC4803F00BFA5FFAB9
:101BE0008BFBBBF1000F1ED100200190DFF83C0EF3
:101BF000009041F6812340F2F532A349A34803F057
:101C0000F9F9DFF8000601905FFA8AFACDF800A032
:101C10004B469BB24246D2B23900C9B22000FEF711
:101C2000A5FDFF20A1E702AA4146C9B22000FEF7A8
:101C30006CFF83465FFA8BFBBBF1000F1ED00020C8
:101C40000190DFF8EC0D009041F6822340F2FD3266
:101C50008D498E4803F0CEF9DFF8A80501905FFAB0
:101C60008AFACDF800A04B469BB24246D2B2390068
:101C7000C9B22000FEF77AFDFF2076E7022001902E
:101C80005046C0B200904B469BB23A00D2B29DF88B
:101C900008102000FEF753FE2879C0F34000C0B2C0
:101CA000002874D02879C0F38100C0B2D0F10400BC
:101CB000059005989DF80810582202FB01414863E1
:101CC00015F10803059A9DF808102000FEF78EFC18
:101CD00083465FFA8BFBBBF1000F11D05FF0006011
:101CE00001905FFA8AFACDF800A04B469BB24246BB
:101CF000D2B23900C9B22000FEF738FDFF2034E728
:101D000000200190DFF82C0D009043F6832340F271
:101D100011425D495D4803F06DF99DF808102000FF
:101D2000FEF7E8FA0500002D1CD000200190DFF836
:101D3000FC04009041F6842340F215425249534876
:101D400003F058F901955FFA8AFACDF800A04B46E6
:101D50009BB24246D2B23900C9B22000FEF706FD5E
:101D6000FF2002E79DF808102000FEF7AFFD60207D
:101D70008DF80C0048468DF80D001FFA89F95FEACE
:101D800019208DF80E008DF80FA004202FE028797F
:101D9000C007ECD5287A697A09020818A97A10EBED
:101DA0000140E97A10EB01600590059A3900C9B24B
:101DB0002000FEF774FF83465FFA8BFBBBF1000F38
:101DC000D5D05FF0006001905FFA8AFACDF800A0EC
:101DD0004B469BB24246D2B23900C9B22000FEF750
:101DE000C5FCFF20C1E6002103AA8154401C08283D
:101DF000F9D300200190DFF8100E009043F6832302
:101E000040F22D422049214803F0F4F803AB3A0098
:101E1000D2B24146C9B22000FEF748FFE3E15FFAC3
:101E20008BFBBBF1000F0DD19DF80800582101FB81
:101E3000004090F82A00022802D05FF0010B01E078
:101E40005FF0000B5FFA8BFBBBF1000F2AD0F6B2FC
:101E50000196DFF8B008009041F6852340F2364243
:101E600009490A4803F0C6F8E648019000200090AE
:101E700000234246D2B23900C9B22000FEF776FCF8
:101E8000FF2072E648280108DCF70008B01D0108B1
:101E900054280108842601086028010888190108CF
:101EA000A81901089DF808000190D748009043F652
:101EB000072340F23B42DFF8541DDFF8C00E03F069
:101EC00099F89DF80800582101FB0040B0F97A000C
:101ED00010F1010F3DD09DF808000190CB48009013
:101EE00043F6052340F23B42DFF8201DDFF88C0E5D
:101EF00003F080F89DF80800582101FB0040B0F97C
:101F00007A0005F010FB9DF80810582202FB0141F1
:101F1000A1F87A009DF808000190BD48009043F6B2
:101F2000062340F23B42DFF8E41CDFF8500E03F0DA
:101F300061F800200090B74BB74A9DF808102000C8
:101F400005F090FA9DF80810582202FB0141A1F813
:101F50007A009DF80800582101FB0040B0F830904D
:101F60009DF80800582101FB004090F832A09DF830
:101F70000800582101FB004090F82B002979C1F39B
:101F80000011C9B2884237D0F6B20196DFF878075F
:101F9000009041F686234FF48862DFF8701CDFF86A
:101FA000DC0D03F027F89F4801905FFA8AFACDF81C
:101FB00000A04B469BB24246D2B23900C9B22000C3
:101FC000FEF7D4FBFF20D0E5C819010894260108CC
:101FD000B0240108581E0108A42601086016010853
:101FE0006C2801080C220108E8190108782801086A
:101FF000B42601082422010805AA9DF80810200033
:10200000FEF733FE0598002849D1F6B20196DFF8B5
:10201000700D009043F687234FF48962DFF8EC1BC4
:10202000DFF8580D02F0E6FF9DF8080001907748B0
:10203000009043F6052340F24942DFF8D01BDFF859
:102040003C0D02F0D7FF9DF80800582101FB00402D
:10205000B0F97A0005F067FA9DF80810582202FBE3
:102060000141A1F87A0001209DF80810582202FBD6
:10207000014181F82A009DF80800582101FB004029
:10208000C06F002809D03100C9B220009DF8082097
:10209000582303FB0242D26F9047002065E5059864
:1020A00008283CD39DF80800582101FB004090F817
:1020B0002B00002801D1012000E000209DF808102D
:1020C000582202FB014181F82B009DF8080058219D
:1020D00001FB004090F82B0000018DF80C000DF181
:1020E0000D0307229DF808102000FEF70EFA834624
:1020F0005FFA8BFBBBF1000F5ED05FF000600190D8
:102100005FFA8AFACDF800A04B469BB24246D2B2A3
:102110003900C9B22000FEF729FBFF2025E59DF814
:102120000800582101FB004090F82B00002801D145
:10213000012000E000209DF80810582202FB014118
:1021400081F82B009DF80800582101FB004090F811
:102150002B0000010599D1F1070150EA410050F030
:1021600001008DF80C000DF10D03059A9DF8081083
:102170002000FEF7CAF983465FFA8BFBBBF1000F24
:1021800011D05FF0006001905FFA8AFACDF800A0EC
:102190004B469BB24246D2B23900C9B22000FEF78C
:1021A000E5FAFF20E1E40598401C03E0002103AAC2
:1021B0008154401C0828F9D3F6B20196DFF8BC0E12
:1021C000009043F6882340F26742DFF8401ADFF8B8
:1021D000AC0B02F00FFF03AB3A00D2B24146C9B2DA
:1021E0002000FEF763FDBFE484160108842801087F
:1021F00098120108C4260108C4240108D824010843
:10220000CCFA000821000008081A0108201E010865
:102210003C1E0108C0C62D008901000854050108B4
:10222000741E010800000305C8FE0008280101080B
:102230005FFA88F8B8F1010F40F091816879019058
:10224000DFF8400B009000234FF48E62DFF8BC19DA
:10225000DFF8280B02F0CEFEA8790190DFF8280BFA
:102260000090002340F27142DFF8A019DFF80C0B58
:1022700002F0C0FEE8790190DFF8100B0090002317
:1022800040F27242DFF88419DFF8F00A02F0B2FE81
:10229000A879697951EA002995F807A0FFB201975A
:1022A000DFF8EC0A009043F6892340F27642DFF82B
:1022B0005C19DFF8C80A02F09DFE1FFA89F9CDF813
:1022C0000490DFF8600E009043F6902340F27742CE
:1022D000DFF83819DFF8A40A02F08CFE5FFA8AFAF8
:1022E000CDF804A0DFF8D40E009043F691234FF40C
:1022F0008F62DFF81819DFF8840A02F07BFE5FFABC
:102300008BFBBBF1000F31D19DF808000190DFF885
:10231000B00E009041F6922340F27B42DFF8EC18B9
:10232000DFF8580A02F066FEFFB20197DFF8940E5C
:10233000009043F6932340F27C42DFF8D018DFF898
:102340003C0A02F057FEDFF84C0A01905FFA8AFA65
:10235000CDF800A04B469BB24246D2B23900C9B27A
:102360002000FEF703FAFF20FFF7FFBB02AA414659
:10237000C9B22000FEF7C9FB83465FFA8BFBBBF1B5
:10238000000F21D000200190DFF8A406009041F654
:10239000712340F28442DFF87418DFF8E00902F09C
:1023A00029FEDFF8F00901905FFA8AFACDF800A063
:1023B0004B469BB24246D2B23900C9B22000FEF76A
:1023C000D5F9FF20FFF7D1BB032001905046C0B2E2
:1023D00000904B469BB23A00D2B29DF80810200004
:1023E000FEF7ADFA9DF808102000FDF7F6FF050096
:1023F000002D1ED00195DFF8A00E009041F6942329
:1024000040F28E42DFF80418DFF8700902F0F2FDA6
:1024100001955FFA8AFACDF800A04B469BB242467E
:10242000D2B23900C9B22000FEF7A0F9FF20FFF7B1
:102430009CBB05AA9DF808102000FEF716FC059825
:10244000052834D341208DF80C0048468DF80D0046
:102450001FFA89F95FEA19208DF80E008DF80FA098
:1024600005988DF810000598000A8DF81100059860
:10247000000C8DF812000598000E8DF81300F6B2CE
:102480000196DFF81409009043F6952340F29F422D
:10249000DFF87817DFF8E40802F0ACFD03AB3A0090
:1024A000D2B24146C9B22000FEF700FCD4E1059843
:1024B000D0F10400800050F043008DF80C00484635
:1024C0008DF80D00484680B2000A8DF80E008DF898
:1024D0000FA004AB059A9DF808102000FEF715F830
:1024E00083465FFA8BFBBBF1000F12D05FF00060F8
:1024F00001905FFA8AFACDF800A04B469BB24246A3
:10250000D2B23900C9B22000FEF730F9FF20FFF740
:102510002CBB0598001D03E0002103AA8154401C38
:102520000828F9D3FFB20197DFF87008009043F64E
:1025300096234FF49662DFF8D416DFF8400802F0D5
:1025400059FD03AB3A00D2B24146C9B22000FEF7B2
:10255000ADFB9DF808102000FEF7B8F97CE15FFAAA
:102560008BFBBBF1000F0DD19DF80800582101FB3A
:10257000004090F82A00032802D05FF0010B01E030
:102580005FF0000B5FFA8BFBBBF1000F1ED0F6B2C1
:102590000196DFF80C08009041F6972340F2BD4207
:1025A000DFF86816DFF8D40702F024FDDFF8E4074F
:1025B00001900020009000234246D2B23900C9B2F7
:1025C0002000FEF7D3F8FF20FFF7CFBA9DF80800F0
:1025D0000190DFF8D007009043F6072340F2C24293
:1025E000DFF82816DFF8940702F004FD9DF80800D4
:1025F000582101FB0040B0F97A0010F1010F41D0E1
:102600009DF808000190DFF8880E009043F605233E
:1026100040F2C242DFF8F415DFF8600702F0EAFC8E
:102620009DF80800582101FB0040B0F97A0004F041
:102630007AFF9DF80810582202FB0141A1F87A00A8
:102640009DF808000190DFF86007009043F606232C
:1026500040F2C242DFF8B415DFF8200702F0CAFCEE
:1026600000200090DFF84437DFF844279DF8081079
:10267000200004F0F7FE9DF80810582202FB0141EB
:10268000A1F87A009DF80800582101FB0040B0F83D
:1026900030909DF80800582101FB004090F832A0CE
:1026A0002879C0F34000C0B2002800F08680287965
:1026B000C0F38100C0B2D0F10400059015F1080309
:1026C000059A9DF808102000FDF790FF83465FFAF9
:1026D0008BFBBBF1000F1DD05FF0006001905FFA33
:1026E0008AFACDF800A04B469BB24246D2B23900DE
:1026F000C9B22000FEF73AF8FF20FFF736BA00BF54
:10270000280B0108FCFB000868010108281A0108D1
:10271000DC0F0108F6B20196DFF89806009043F648
:1027200098234FF49A62DFF8E414DFF8500602F0C1
:1027300061FC9DF808000190DFF8540D009043F60D
:10274000052340F2D142DFF8C414DFF8300602F06E
:1027500051FC9DF80800582101FB0040B0F97A00B7
:1027600004F0E1FE9DF80810582202FB0141A1F897
:102770007A0005989DF80810582202FB0141486331
:1027800001209DF80810582202FB014181F82A001F
:102790009DF80800582101FB0040C06F002809D0B7
:1027A0003100C9B220009DF80820582303FB0242E3
:1027B000D26F90470020FFF7D8B92879C00729D5F4
:1027C000287A697A09020818A97A10EB0140E97A97
:1027D00010EB01600590059A9DF808102000FEF7A7
:1027E0005EFA83465FFA8BFBBBF1000F12D05FF0FD
:1027F000006001905FFA8AFACDF800A04B469BB2C8
:102800004246D2B23900C9B22000FDF7AFFFFF2027
:10281000FFF7ABB960208DF80C00012003E0002128
:1028200003AA8154401C0828F9D3F6B20196DFF8B8
:102830008805009043F6992340F2E542DFF8CC1377
:10284000DFF8380502F0D6FB03AB3A00D2B24146BE
:10285000C9B22000FEF72AFAFFF786B95FFA88F8B6
:10286000B8F1010F40F09B815FFA8BFBBBF1000FC9
:102870000DD19DF80800582101FB004090F82A0076
:10288000032802D05FF0010B01E05FF0000B5FFA5C
:102890008BFBBBF1000F1DD0FFB20197DFF81C05C9
:1028A00000904FF4D55340F2F442D849DFF8CC04FD
:1028B00002F0A0FBDFF8DC04019000200090002370
:1028C0004246D2B23900C9B22000FDF74FFFFF20C7
:1028D000FFF74BB99DF808000190DFF8C80400909D
:1028E00043F6072340F2F942C849DFF8900402F0AA
:1028F00081FB9DF80800582101FB0040B0F97A00E7
:1029000010F1010F3FD09DF808000190DFF8800B17
:10291000009043F6052340F2F942BC49DFF85C041D
:1029200002F068FB9DF80800582101FB0040B0F957
:102930007A0004F0F8FD9DF80810582202FB0141CE
:10294000A1F87A009DF808000190DFF85C0400907F
:1029500043F6062340F2F942AC49DFF8200402F0C6
:1029600049FB00200090DFF84434DFF844249DF850
:102970000810200004F076FD9DF80810582202FB94
:102980000141A1F87A00FFB20197DFF8340400900A
:1029900043F6A12340F2FA429C49DFF8E00302F03B
:1029A00029FB9DF80800582101FB0040B0F8309049
:1029B0009DF80800582101FB004090F832A09DF8D6
:1029C0000800582101FB004090F82B002979C1F341
:1029D0000011C9B288422FD02879C0F30010C0B2CC
:1029E0000190DFF8E003009041F6A22340F2FF429D
:1029F0008649E24802F0FEFADFF8CC0301905FFA64
:102A00008AFACDF800A04B469BB24246D2B23900BA
:102A1000C9B22000FDF7AAFEFF20FFF7A6B800BF4D
:102A200018FB0008EC2401083C220108C012010830
:102A3000A80101089005010805AA9DF808102000CA
:102A4000FEF713F90598082853D39DF8080058217C
:102A500001FB004090F82B0000018DF80C000DF1F7
:102A60000D0307229DF808102000FDF74EFD834658
:102A70005FFA8BFBBBF1000F12D05FF0006001909A
:102A80005FFA8AFACDF800A04B469BB24246D2B21A
:102A90003900C9B22000FDF769FEFF20FFF765B8D5
:102AA0009DF80800582101FB004090F82B000028F9
:102AB00001D1012000E000209DF80810582202FBFF
:102AC000014181F82B00FFB20197DFF8980E0090CA
:102AD00043F6A3234FF4A2624C49A84802F08AFAB5
:102AE00003AB3A00D2B24146C9B22000FEF7DEF88D
:102AF000EBE19DF80800582101FB004090F82B0005
:102B000000010599D1F1070150EA410050F00100A0
:102B10008DF80C000DF10D03059A9DF808102000AA
:102B2000FDF7F3FC83465FFA8BFBBBF1000F12D07D
:102B30005FF0006001905FFA8AFACDF800A04B4682
:102B40009BB24246D2B23900C9B22000FDF70EFE58
:102B5000FF20FFF70AB80598401C03E0002103AAF4
:102B60008154401C0828F9D3FFB20197DFF8200EEA
:102B7000009043F6A42340F21E5224497F4802F0FD
:102B800039FA03AB3A00D2B24146C9B22000FEF78F
:102B90008DF89DF808102000FDF798FE95E15FFA8A
:102BA0008BFBBBF1000F0DD19DF80800582101FBF4
:102BB000004090F82A00022802D05FF0010B01E0EB
:102BC0005FF0000B5FFA8BFBBBF1000F20D0F6B279
:102BD0000196DFF8C00D009041F6A52340F22B527C
:102BE0000A49664802F006FA6A48019000200090FF
:102BF00000234246D2B23900C9B22000FDF7B6FD2B
:102C0000FF20FEF7B2BF00BF54220108DCF7000826
:102C10009DF8080001906348009043F607234FF4A5
:102C2000A662DFF8741D554802F0E4F99DF808002B
:102C3000582101FB0040B0F97A0010F1010F3CD09F
:102C40009DF808000190DFF84808009043F605233E
:102C50004FF4A662DFF8401D484802F0CBF99DF81A
:102C60000800582101FB0040B0F97A0004F05BFC39
:102C70009DF80810582202FB0141A1F87A009DF846
:102C8000080001904848009043F606234FF4A662DE
:102C9000DFF8041D394802F0ADF900200090434BE5
:102CA000434A9DF80810200004F0DCFB9DF8081052
:102CB000582202FB0141A1F87A009DF80800582132
:102CC00001FB0040B0F830909DF80800582101FB4E
:102CD000004090F832A005AA9DF808102000FDF7EA
:102CE000C4FF0598002871D1F6B20196DFF8AC0C4C
:102CF000009043F6A62340F23652DFF89C1C1F4892
:102D000002F078F99DF808000190DFF88407009040
:102D100043F6052340F23752DFF87C1C174802F0D7
:102D200069F99DF80800582101FB0040B0F97A00CC
:102D300004F0F9FB9DF80810582202FB0141A1F8AC
:102D40007A0001209DF80810582202FB014181F809
:102D50002A009DF80800582101FB0040C06F0028A0
:102D600009D03100C9B220009DF80820582303FB88
:102D70000242D26F90470020FEF7F7BEB01D010857
:102D8000E8010108D42601080025010814250108DE
:102D900044FC000821000008D4FC000864FB000883
:102DA0001CFD0008081A01083C1E0108C0C62D00C1
:102DB0008901000828020108880B0108B0FB0008FF
:102DC000AC070108741E01080000030505980828D7
:102DD0002AD39DF80800582101FB004090F82B00F1
:102DE00000018DF80C000DF10D0307229DF808106D
:102DF0002000FDF78AFB83465FFA8BFBBBF1000FD7
:102E00004DD05FF0006001905FFA8AFACDF800A023
:102E10004B469BB24246D2B23900C9B22000FDF700
:102E2000A5FCFF20FEF7A1BE9DF80800582101FB7C
:102E3000004090F82B0000010599D1F1070150EAFC
:102E4000410050F001008DF80C000DF10D03059AC2
:102E50009DF808102000FDF758FB83465FFA8BFBB6
:102E6000BBF1000F12D05FF0006001905FFA8AFAA8
:102E7000CDF800A04B469BB24246D2B23900C9B24F
:102E80002000FDF773FCFF20FEF76FBE0598401C85
:102E900003E0002103AA8154401C0828F9D3F6B2AC
:102EA00001967648009043F6A72340F25252DFF88D
:102EB000E81ADFF8040E02F09DF803AB3A00D2B234
:102EC0004146C9B22000FDF7F1FEFEF74DBE287A5B
:102ED000697A50EA0120A97A50EA0140E97A50EA79
:102EE00001655FFA88F8B8F1010F27D15FFA8BFB13
:102EF000BBF1000F13D19DF808102000FDF7E6FC90
:102F00000195DFF8B80D009043F6A82340F2625215
:102F1000DFF8841ADFF8A00D02F06CF870E001957C
:102F2000DFF89C0D009043F6A92340F26552DFF8CC
:102F3000681ADFF8840D02F05DF861E05FFA8BFB40
:102F4000BBF1000F4ED19DF808000190DFF840055D
:102F5000009043F6052340F26C52DFF83C1ADFF88C
:102F6000580D02F047F89DF80800582101FB004079
:102F7000B0F97A0004F0D7FA9DF80810582202FB45
:102F80000141A1F87A0080209DF80810582202FB28
:102F9000014181F82A009DF80800582101FB0040FA
:102FA000C5620195DFF81C0D009043F6B02340F296
:102FB0006F52DFF8E419DFF8000D02F01BF89DF8FE
:102FC0000800582101FB0040C06F002818D03100D4
:102FD000C9B220009DF80820582303FB0242D26F9B
:102FE00090470DE00195DFF8D80C009043F6B1232F
:102FF00040F27352DFF8A019DFF8BC0C01F0FAFFC1
:10300000FEF7B2BD287910F003008DF809005FFAD1
:1030100088F8B8F1010F40F0A0839DF8090000285E
:1030200040F03181A879697951EA002995F807A023
:10303000FFB20197DFF8900C009043F6B22340F204
:103040007D52DFF85419DFF8700C01F0D3FF1FFA3E
:1030500089F9CDF804903348009043F6B32340F249
:103060007E52DFF83419DFF8500C01F0C3FF5FFA2D
:103070008AFACDF804A0514802E000BFE812010826
:10308000009043F6B42340F27F52DFF80C19DFF8CA
:10309000280C01F0AFFF5FFA8BFBBBF1000F2FD1C3
:1030A0009DF8080001904648009041F6932340F2B5
:1030B0008252DFF8E418DFF8000C01F09BFFFFB24A
:1030C00001974048009043F6B52340F28352DFF861
:1030D000C818DFF8E40B01F08DFFDFF8F00B01906A
:1030E0005FFA8AFACDF800A04B469BB24246D2B2B4
:1030F0003900C9B22000FDF739FBFF20FEF735BDCE
:1031000002AA4146C9B22000FDF7FFFC83465FFAE0
:103110008BFBBBF1000F25D000200190DFF8280EBB
:1031200002E000BF28250108009041F6732340F219
:103130008B52DFF86418DFF8800B01F05BFFDFF8DB
:103140008C0B01905FFA8AFACDF800A04B469BB237
:103150004246D2B23900C9B22000FDF707FBFF207A
:10316000FEF703BD052001905046C0B200904B46CB
:103170009BB23A00D2B29DF808102000FDF7DFFBA9
:103180002879C0F380009DF80810582202FB014105
:1031900081F86400287A9DF80810582202FB01414A
:1031A00081F865009DF808102000FDF716F905006C
:1031B000002D25D00195384806E000BF6C2201089B
:1031C000580B0108E4260108009041F6952340F2CF
:1031D0009652DFF8C417DFF8E00A01F00BFF019503
:1031E0005FFA8AFACDF800A04B469BB24246D2B2B3
:1031F0003900C9B22000FDF7B9FAFF20FEF7B5BCCF
:1032000005AA9DF808102000FDF72FFD05989DF8F0
:103210000810582202FB01418866C2208DF80C007C
:1032200048468DF80D001FFA89F95FEA19208DF8DC
:103230000E008DF80FA005988DF810000598000A73
:103240008DF811000598000C8DF812000598000EFD
:103250008DF81300F6B20196DFF8740A009043F679
:103260009A2340F2A552DFF83017DFF84C0A01F03C
:10327000C1FE03AB3A00D2B24146C9B22000FDF70D
:1032800015FDFEF771BC9DF8090001284ED1FFB273
:103290000197DFF8400A01E08CFC0008009043F63B
:1032A000A22340F2A952DFF8F016DFF80C0A01F071
:1032B000A1FE5FFA8BFBBBF1000F0DD19DF808005A
:1032C000582101FB004090F82A00052802D05FF049
:1032D000010B01E05FF0000B5FFA8BFBBBF1000F0D
:1032E0001ED0FFB20197DFF8F009009041F6A1234C
:1032F00040F2AF52DFF8A016DFF8BC0901F07AFE09
:10330000DFF8C80901900020009000234246D2B2A5
:103310003900C9B22000FDF729FAFF20FEF725BCCD
:103320009DF808102000FDF7D1FAAAE79DF80900E2
:10333000022803D09DF809000328A2D15FFA8BFB75
:10334000BBF1000F0DD19DF80800582101FB004092
:1033500090F82A00052802D05FF0010B01E05FF031
:10336000000B5FFA8BFBBBF1000F1ED0FFB2019781
:10337000DFF86809009041F6A12340F2BC52DFF863
:103380001816DFF8340901F035FEDFF84009019026
:103390000020009000234246D2B23900C9B220007A
:1033A000FDF7E4F9FF20FEF7E0BB9DF8080001906F
:1033B000DFF8C40D009043F6072340F2C152DFF856
:1033C000D815DFF8F40801F015FE9DF80800582123
:1033D00001FB0040B0F97A0010F1010F40D09DF8D8
:1033E000080001902A48009043F6052340F2C1529C
:1033F000DFF8A415DFF8C00801F0FCFD9DF8080017
:10340000582101FB0040B0F97A0004F08CF89DF8D7
:103410000810582202FB0141A1F87A009DF808002B
:103420000190DFF89C0E009043F6062340F2C15253
:10343000DFF86415DFF8800801F0DCFD0020009063
:10344000DFF8803EDFF8802E9DF80810200004F0A1
:1034500009F89DF80810582202FB0141A1F87A00F2
:103460009DF80800582101FB0040B0F830909DF80D
:103470000800582101FB004090F832A09DF8090097
:10348000022840F09D80FFB20197DFF8400E01E076
:10349000201E0108009043F6A22340F2C652DFF836
:1034A000F814DFF8140801F0A5FDA8799DF80810BC
:1034B000582202FB014181F86500687910F07F0510
:1034C00005AA9DF808102000FDF7CFFB05980028FD
:1034D00036D19DF80800582101FB004090F86D009E
:1034E000EDB285422CD19DF80800582101FB004027
:1034F00090F86E00800050F0C1008DF80C000120A3
:1035000003E0002103AA8154401C0828F9D3FFB22C
:103510000197DFF8BC0D009043F6A52340F2CE5290
:10352000DFF87414DFF8900701F064FD03AB3A0094
:10353000D2B24146C9B22000FDF7B8FBFEF714BB7A
:103540009DF80800582101FB004090F86C00EDB296
:10355000072101FB05F151FA80F09DF8081058226F
:1035600002FB014188639DF80800582101FB0040DF
:10357000406B9DF80810582202FB0141896B88427C
:103580002DD2FFB20197DFF8940E009041F6A123EF
:1035900040F2D652DFF80014DFF81C0701F02AFDD4
:1035A000DFF8280701900020009000234246D2B2A5
:1035B0003900C9B22000FDF7D9F8FF20FEF7D5BACF
:1035C000FFB20197DFF8580E009043F6A22340F2B5
:1035D000DC52DFF8C413DFF8E00601F00BFD9DF8C4
:1035E0000800582101FB0040806B9DF8081058220C
:1035F00002FB014181F86C0001208DF8090019E0FF
:10360000FFB20197D748009043F6A52340F2E95254
:10361000E149DFF8A40601F0EDFC03AB3A00D2B2B9
:103620004146C9B22000FDF741FB9DF80900401C4E
:103630008DF809009DF80800582101FB004090F822
:1036400065009DF809108842FFF41BAE9DF8090043
:103650009DF80810582202FB014181F86D0005AA6F
:103660009DF808102000FDF700FB0598082824D3DA
:103670009DF809008DF80C000DF10D0307229DF84F
:1036800008102000FCF741FF83465FFA8BFBBBF17B
:10369000000FB5D05FF0006001905FFA8AFACDF8B4
:1036A00000A04B469BB24246D2B23900C9B22000BC
:1036B000FDF75CF8FF20FEF758BA9DF8090050F0BE
:1036C00080008DF80C000DF10D03059A9DF808108F
:1036D0002000FCF71AFF83465FFA8BFBBBF1000F5B
:1036E00012D05FF0006001905FFA8AFACDF800A076
:1036F0004B469BB24246D2B23900C9B22000FDF718
:1037000035F8FF20FEF731BA0598401C03E0002190
:1037100003AA8154401C0828F9D3FFB201979C48A2
:10372000009043F6A52340F2F6529B49DFF8880546
:1037300001F060FC03AB3A00D2B24146C9B22000AE
:10374000FDF7B4FA0598D0F107009DF8081058224B
:1037500002FB014181F86E0093E59DF80900002805
:1037600004D09DF80900022840F009825FFA8BFB23
:10377000BBF1000F0DD19DF80800582101FB00405E
:1037800090F82A00042802D05FF0010B01E05FF0FE
:10379000000B5FFA8BFBBBF1000F1DD0F6B2019658
:1037A000DFF8800C009041F6AA2340F204627A49C7
:1037B000DFF8040501F01EFCDFF810050190002081
:1037C000009000234246D2B23900C9B22000FCF773
:1037D000CDFFFF20FEF7C9B99DF808000190DFF882
:1037E0009809009043F6072340F209626A49DFF81E
:1037F000C80401F0FFFB9DF80800582101FB0040C0
:10380000B0F97A0010F1010F3FD09DF80800019047
:10381000DFF8140C009043F6052340F209625E497C
:10382000DFF8940401F0E6FB9DF80800582101FB45
:103830000040B0F97A0003F076FE9DF80810582297
:1038400002FB0141A1F87A009DF808000190DFF821
:10385000700A009043F6062340F209624E49DFF8F1
:10386000580401F0C7FB00200090DFF8583ADFF859
:10387000582A9DF80810200003F0F4FD9DF8081068
:10388000582202FB0141A1F87A009DF809000028A6
:1038900030D19DF80800582101FB0040B0F830906D
:1038A0009DF80800582101FB004090F832A02879CB
:1038B000C0F380009DF80810582202FB014181F8F6
:1038C0006400287A9DF80810582202FB014181F813
:1038D00065009DF80800582101FB0040806B9DF8B1
:1038E0000810582202FB014181F86C0001208DF87C
:1038F0000900AFE0A8799DF80810582202FB0141A9
:1039000081F86500687910F07F0505AA9DF8081018
:103910002000FDF7AAF90598002841D19DF808007C
:10392000582101FB004090F86D00EDB2854237D17F
:103930009DF80800582101FB004090F86E008000BF
:1039400050F0C1008DF80C00012003E0002103AA13
:103950008154401C0828F9D3FFB20197DFF8CC0A44
:1039600002E000BFE4070108009043F6A5234FF4EE
:10397000C3620949D04801F03DFB03AB3A00D2B223
:103980004146C9B22000FDF791F9FEF7EDB800BF3E
:10399000CC05010864FD0008DCF7000808060108F2
:1039A0009DF80800582101FB004090F86C00EDB232
:1039B000072101FB05F151FA80F09DF8081058220B
:1039C00002FB014188639DF80800582101FB00407B
:1039D000406B9DF80810582202FB0141896B884218
:1039E000BFF477AFFFB20197DFF8440A009041F6C9
:1039F000A1234FF4C462DFF83C1AAF4801F0FAFA91
:103A0000B24801900020009000234246D2B2390013
:103A1000C9B22000FCF7AAFEFF20FEF7A6B8F6B256
:103A20000196DFF8140A009043F6AB2340F23162AE
:103A3000DFF8001AA04801F0DDFA03AB3A00D2B279
:103A40004146C9B22000FDF731F99DF80900401C3C
:103A50008DF809009DF80800582101FB004090F8FE
:103A600065009DF809108842FFF40BAC9DF8090031
:103A70009DF80810582202FB014181F86D0005AA4B
:103A80009DF808102000FDF7F0F80598082824D3C9
:103A90009DF809008DF80C000DF10D0307229DF82B
:103AA00008102000FCF731FD83465FFA8BFBBBF169
:103AB000000FB4D05FF0006001905FFA8AFACDF891
:103AC00000A04B469BB24246D2B23900C9B2200098
:103AD000FCF74CFEFF20FEF748B89DF8090050F0B7
:103AE00080008DF80C000DF10D03059A9DF808106B
:103AF0002000FCF70AFD83465FFA8BFBBBF1000F49
:103B000012D05FF0006001905FFA8AFACDF800A051
:103B10004B469BB24246D2B23900C9B22000FCF7F4
:103B200025FEFF20FEF721B80598401C03E0002188
:103B300003AA8154401C0828F9D3F6B20196DFF895
:103B4000DC0E009043F6AB2340F23E62DFF8E4184F
:103B5000594801F04FFA03AB3A00D2B24146C9B21C
:103B60002000FDF7A3F80598D0F107009DF8081094
:103B7000582202FB014181F86E00FFF782BB9DF8DD
:103B80000900012849D1F6B20196DFF8940E0090A1
:103B900043F6AC2340F24662DFF89818464801F03D
:103BA00029FA9DF808000190DFF87C08009043F6A0
:103BB000052340F24762DFF87C183F4801F01AFA0B
:103BC0009DF80800582101FB0040B0F97A0003F08D
:103BD000AAFC9DF80810582202FB0141A1F87A00C6
:103BE00001209DF80810582202FB014181F82A00AB
:103BF0009DF80800582101FB0040C06F002809D043
:103C00003100C9B220009DF80820582303FB02426E
:103C1000D26F90470020FDF7A8BFF6B20196DFF8FB
:103C2000040E009041F6AB2340F24D62DFF8041819
:103C3000214801F0DFF92548019000200090002381
:103C40004246D2B23900C9B22000FCF78FFDFF20F6
:103C5000FDF78BBF5FFA88F8B8F1010F40F0EE83F3
:103C60005FFA8BFBBBF1000F00F00881287910F0A0
:103C700001008DF809009DF80900002830D0F6B247
:103C80000196DFF8A40D009041F6AC2340F2596292
:103C9000DFF8A017084801F0ADF90C4801900020AA
:103CA000009000234246D2B23900C9B22000FCF78E
:103CB0005DFDFF20FDF759BFB01D0108B80B0108DD
:103CC000E80B01081C08010868020108210000082F
:103CD0008CF900080CFF0008DCF900082CFA000839
:103CE000A879697951EA002995F807A0FFB20197F0
:103CF000DFF8380D009043F69B234FF4CC62DFF8D9
:103D00003417DFF8680E01F075F91FFA89F9CDF85C
:103D10000490DFF81C0D009043F69B2340F2616293
:103D2000DFF81017DFF8440E01F064F95FFA8AFA41
:103D3000CDF804A0DFF8FC0C009043F69B2340F282
:103D40006262DFF8F016DFF8240E01F053F902AAE0
:103D50004146C9B22000FCF7D8FE83465FFA8BFBD0
:103D6000BBF1000F20D0002001907748009041F671
:103D7000892340F26662DFF8BC16DFF8F00D01F02F
:103D800039F9DFF8EC0D01905FFA8AFACDF800A05E
:103D90004B469BB24246D2B23900C9B22000FCF772
:103DA000E5FCFF20FDF7E1BE042001905046C0B2C3
:103DB00000904B469BB23A00D2B29DF8081020000A
:103DC000FCF7BDFD01209DF80810582202FB0141BF
:103DD00081F86F002879C0F380009DF80810582200
:103DE00002FB014181F864002879800715D5287A03
:103DF000697A4FF4807251430818A97A5FF48032CF
:103E000002FB0100E97A5FF0807202FB01009DF87D
:103E10000810582202FB01418866A0208DF80C0092
:103E200048468DF80D001FFA89F95FEA19208DF8D0
:103E30000E008DF80FA020208DF8100000208DF8C6
:103E400013008DF812008DF81100FFB20197DFF812
:103E5000240D009043F6AD2340F27562DFF8D415CF
:103E6000DFF8080D01F0C6F803AB3A00D2B24146C4
:103E7000C9B22000FCF71AFF00F0BDBD9DF8080094
:103E8000582101FB004090F96F00012840F0538158
:103E9000FFB20197DFF8E00C009043F69B2340F25D
:103EA0007962DFF89015DFF8C40C01F0A3F89DF8F3
:103EB00008000190B048009043F6072340F27A6270
:103EC000DFF87015DFF8A40C01F094F89DF80800F5
:103ED000582101FB0040B0F97A0010F1010F42D0E7
:103EE0009DF808000190DFF84005009043F6052397
:103EF00040F27A62DFF83C15DFF8700C01F07AF8D6
:103F00009DF80800582101FB0040B0F97A0003F049
:103F10000AFB9DF80810582202FB0141A1F87A0023
:103F20009DF808000190E648009043F6062340F211
:103F30007A62DFF80015DFF8340C01F05BF800203E
:103F40000090E04B02E000BFA8010108DE4A9DF8A6
:103F50000810200003F086FA9DF80810582202FB92
:103F60000141A1F87A00287910F07F008DF809004E
:103F70002879000663D59DF809009DF8081058229D
:103F800002FB014191F86D10491C88421CD10220AE
:103F90009DF80810582202FB014181F86F009DF83E
:103FA00009009DF80810582202FB014181F86D00BC
:103FB0000822291D9DF80800582303FB004010F13A
:103FC0007005280003F012FAA2208DF80C009DF86D
:103FD0000800582101FB004090F86D008DF80D009D
:103FE00020208DF80E0000208DF813008DF81200AF
:103FF0008DF811008DF810008DF80F00FFB20197B9
:10400000DFF8780B009043F6AE2340F28762DFF8CA
:104010002414DFF8580B00F0EDFF03AB3A00D2B2E6
:104020004146C9B22000FCF741FE00209DF808106F
:10403000582202FB014181F86D0000F0DCBC9DF8C4
:1040400009009DF80810582202FB014191F86D10FB
:10405000491C884230D19DF809009DF8081058226B
:1040600002FB014181F86D006B1D07229DF80810CD
:104070002000FCF7BBFA83465FFA8BFBBBF1000F15
:104080001AD05FF0006001909DF80800582101FBF4
:10409000004090F8320000909DF80800582101FB84
:1040A0000040038E4246D2B23900C9B22000FCF76C
:1040B0005DFBFF20FDF759BD9DF80900202840F069
:1040C0009A84A2208DF80C009DF80800582101FB6D
:1040D000004090F86D008DF80D0020208DF80E0046
:1040E00000208DF813008DF812008DF811008DF866
:1040F00010008DF80F00FFB20197DFF8800A0090E2
:1041000043F6AE2340F29A62CA49DFF8600A00F033
:1041100071FF03AB3A00D2B24146C9B22000FCF7AE
:10412000C5FD00209DF80810582202FB014181F8CE
:104130006D0000F060BC9DF80800582101FB0040B4
:1041400090F96F00022840F05684FFB20197DFF823
:10415000480D009043F69B2340F2A162B549DFF879
:104160000C0A00F047FF2879C00721D4FFB201975D
:10417000DFF8280D02E000BF081A0108009041F6A0
:10418000AD2340F2A462AB49DFF8E00900F032FF52
:10419000DFF8DC0901900020009000234246D2B2F3
:1041A0003900C9B22000FCF7E1FAFF20FDF7DDBCC1
:1041B0009DF808000190DFF8E80C009043F6072313
:1041C0004FF4D5629B49DFF8A40900F013FF9DF876
:1041D0000800582101FB0040B0F97A0010F1010FEE
:1041E0003BD09DF8080001908F48009043F60523CE
:1041F0004FF4D5628F49DFF8740900F0FBFE9DF89B
:104200000800582101FB0040B0F97A0003F08BF957
:104210009DF80810582202FB0141A1F87A009DF890
:10422000080001902648009043F606234FF4D5621B
:104230008049DFF8380900F0DDFE00200090214BB6
:10424000214A9DF80810200003F00CF99DF8081091
:10425000582202FB0141A1F87A002879C0F38200BC
:104260009DF80810582202FB014111F17103C0B200
:10427000D0F107029DF808102000FCF7B7F983463B
:104280005FFA8BFBBBF1000F24D05FF00060019060
:104290009DF80800582101FB004090F83200009082
:1042A0009DF80800582101FB0040038E4246D2B21F
:1042B0003900C9B22000FCF759FAFF20FDF755BCC0
:1042C0003C1E0108C0C62D0089010008A802010893
:1042D00050FF00089DF80800582101FB0040806E47
:1042E000002836D09DF80800582101FB0040806E60
:1042F0009DF80810582202FB0141896B884228D0A2
:10430000FFB20197DFF89C0B009041F6AE2340F21C
:10431000B2624849DFF8540800F06CFEDFF850083C
:1043200001909DF80800582101FB004090F83200F0
:1043300000909DF80800582101FB0040038E424682
:10434000D2B23900C9B22000FCF710FAFF20FDF705
:104350000CBCA1208DF80C00012003E0002103AA71
:104360008154401C0828F9D3FFB20197DFF8640B91
:10437000009043F6AF2340F2BA622E49DFF8EC0713
:1043800000F038FE03AB3A00D2B24146C9B2200079
:10439000FCF78CFC9DF808102000FBF7ABFF050034
:1043A000002D26D000200190DFF82C0B009041F664
:1043B000AF2340F2BF621F49DFF8B00700F01AFEDA
:1043C00001959DF80800582101FB004090F832004B
:1043D00000909DF80800582101FB0040038E4246E2
:1043E000D2B23900C9B22000FCF7C0F9FF20FDF7B6
:1043F000BCBB9DF808102000FCF768FAFFB20197DB
:10440000DFF8D80A009043F6AF2340F2C5620949AD
:10441000DFF8580700F0EEFDEDE200BFACFD00084C
:10442000440601087CFA0008201E010894FF0008D9
:10443000D8FF0008DCF70008081001085FFA8BFBC2
:10444000BBF1000F1ED0F6B20196DFF8940A00907F
:1044500041F6AD2340F2CB62DFF8881ADFF80C0793
:1044600000F0C8FDDFF8080701900020009000234D
:104470004246D2B23900C9B22000FCF777F9FF20DA
:10448000FDF773BB9DF808000190DFF8140A009057
:1044900043F6072340F2CF62DFF8481ADFF8CC0674
:1044A00000F0A8FD9DF80800582101FB0040B0F97C
:1044B0007A0010F1010F41D09DF808000190DFF85B
:1044C000280A009043F6052340F2CF62DFF8141A61
:1044D000DFF8980600F08EFD9DF80800582101FBDA
:1044E0000040B0F97A0003F01EF89DF80810582239
:1044F00002FB0141A1F87A009DF808000190DFF865
:10450000EC09009043F6062340F2CF62DFF8D4199D
:10451000DFF8580600F06EFD00200090DFF8D0397B
:10452000DFF85C269DF80810200002F09BFF9DF844
:104530000810582202FB0141A1F87A009DF80800FA
:10454000582101FB004090F96F00002860D12879C4
:10455000C00700F15082F6B20196DFF8980900908A
:1045600043F69C2340F2D262DFF87819DFF8FC05AD
:1045700000F040FD01209DF80810582202FB014187
:1045800081F86F002879C0F380009DF80810582248
:1045900002FB014181F864002879800715D5287A4B
:1045A000697A4FF4807251430818A97A5FF4803217
:1045B00002FB0100E97A5FF0807202FB01009DF8C6
:1045C0000810582202FB01418866A3208DF80C00D8
:1045D000012003E0002103AA8154401C0828F9D3DC
:1045E000F6B20196DFF81009009043F6B62340F2C8
:1045F000DA62DFF8F018DFF8740500F0FBFC03ABBB
:104600003A00D2B24146C9B22000FCF74FFBF2E1BA
:104610009DF80800582101FB004090F96F00012827
:1046200040F0E680287910F07F008DF809002879A5
:10463000000662D59DF809009DF80810582202FB7B
:10464000014191F86D10491C88421CD102209DF84F
:104650000810582202FB014181F86F009DF8090003
:104660009DF80810582202FB014181F86D000822D4
:10467000291D9DF80800582303FB004010F1700528
:10468000280002F0B3FEA2208DF80C009DF808006F
:10469000582101FB004090F86D008DF80D0020209E
:1046A0008DF80E0000208DF813008DF812008DF8A3
:1046B00011008DF810008DF80F00F6B20196DFF8AA
:1046C0003C08009043F6B72340F2EB62DFF8141881
:1046D000DFF8980400F08EFC03AB3A00D2B24146FA
:1046E000C9B22000FCF7E2FA00209DF80810582219
:1046F00002FB014181F86D007DE19DF809009DF804
:104700000810582202FB014191F86D10491C8842A3
:1047100030D19DF809009DF80810582202FB014194
:1047200081F86D006B1D07229DF808102000FBF733
:104730005DFF83465FFA8BFBBBF1000F1AD05FF081
:10474000006001909DF80800582101FB004090F89E
:10475000320000909DF80800582101FB0040038EB4
:104760004246D2B23900C9B22000FBF7FFFFFF205A
:10477000FDF7FBB99DF80900202840F03C81A220FC
:104780008DF80C009DF80800582101FB004090F8BE
:104790006D008DF80D0020208DF80E0000208DF8A2
:1047A00013008DF812008DF811008DF810008DF8AF
:1047B0000F00F6B20196DFF84407009043F6AE23EF
:1047C00040F2FE62DFF81C17E84800F013FC03AB70
:1047D0003A00D2B24146C9B22000FCF767FA002085
:1047E0009DF80810582202FB014181F86D0002E19A
:1047F0009DF80800582101FB004090F96F00022845
:1048000040F0F9802879C0071CD4F6B20196DFF891
:10481000F006009041F6AD2340F20772DFF8C416AF
:10482000D24800F0E7FBD24801900020009000231E
:104830004246D2B23900C9B22000FBF797FFFF20F1
:10484000FDF793B92879C0F382009DF8081058222B
:1048500002FB014111F17103C0B2D0F107029DF8D2
:1048600008102000FBF7C2FE83465FFA8BFBBBF10A
:10487000000F1AD05FF0006001909DF808005821E9
:1048800001FB004090F8320000909DF8080058218C
:1048900001FB0040038E4246D2B23900C9B220006B
:1048A000FBF764FFFF20FDF760B99DF80800582171
:1048B00001FB0040806E002835D09DF8080058218B
:1048C00001FB0040806E9DF80810582202FB014158
:1048D000896B884227D0F6B20196DFF8280600904F
:1048E00041F6AE2340F21472DFF8F8159F4800F04D
:1048F00081FB9F4801909DF80800582101FB004072
:1049000090F8320000909DF80800582101FB00400B
:10491000038E4246D2B23900C9B22000FBF726FF0F
:10492000FF20FDF722B9A1208DF80C00012003E043
:10493000002103AA8154401C0828F9D3F6B201963D
:10494000DFF85C06009043F6AF2340F21C72DFF8FC
:104950009415864800F04EFB03AB3A00D2B24146B4
:10496000C9B22000FCF7A2F900200190DFF834065C
:10497000009043F6AF2340F21E72DFF868157B48C3
:1049800000F038FB9DF808000190DFF85C0500900E
:1049900043F6052340F21F72DFF84815734800F014
:1049A00029FB9DF80800582101FB0040B0F97A006E
:1049B00002F0B9FD9DF80810582202FB0141A1F850
:1049C0007A0001209DF80810582202FB014181F86D
:1049D0002A009DF80800582101FB0040C06F002804
:1049E00009D03100C9B220009DF80820582303FBEC
:1049F0000242D26F9047FDF7B7B8C0B20190DFF81E
:104A0000A805009041F6B22340F22772DFF8D414D3
:104A1000564800F0EFFAFF20FDF7A7B8180C010880
:104A2000341001081C00010860000108E8020108B8
:104A3000EC2401083C2201082DE9FC4705000E008A
:104A400000276869B0F80280A869B0F802901FFAE0
:104A500088F8B8F1000F0FD1F6B20196DFF84C05D7
:104A6000009041F6C62340F24572DFF878143F48C3
:104A700000F0C0FAFF2077E0002402E018F10108FE
:104A8000641C1FFA89F91FFA88F8C14547D3686882
:104A90001FFA88F810EBC8000079042811DAE4B294
:104AA00014F594500190DFF80805009041F6C823F2
:104AB00040F24B72DFF82C142C4800F09BFAFF20D8
:104AC00052E068681FFA88F850F83800C06A90F819
:104AD00000A0E4B214F594500190DFF8D8040090DF
:104AE00041F6D2234FF4EA62DFF8F8131F4800F0D2
:104AF00081FA5FFA8AFACDF804A0DFF8BC040090CE
:104B000041F6D32340F25172DFF8D813174800F072
:104B100071FA5FFA8AFAF6B2B245AFD10127FFB255
:104B2000002F0FD1F6B20196DFF89004009041F605
:104B3000C92340F25B72DFF8AC130C4800F05AFA5C
:104B4000FE2011E0E4B214F594500190DFF87004F7
:104B5000009043F6D02340F25E72DFF888130348DA
:104B600000F048FA2000C0B2BDE8F687B01D010889
:104B700021000008280301088006010854080108E4
:104B8000890100082DE9F04786B005000E001700E6
:104B90009846F6B20196DFF82C0400904FF46B5360
:104BA00040F27D72DFF83C13DFF81C0400F022FABB
:104BB000BFB20197DFF81404009043F6C12340F21E
:104BC0007E72DFF82013DFF8000400F013FA5FFABA
:104BD00088F8CDF80480DFF8F803009043F6C2238C
:104BE00040F27F72DFF8FC12DFF8DC0300F002FA1B
:104BF000DDF83890CDF80490DFF8D803009043F644
:104C0000C3234FF4F062DFF8DC12DFF8BC0300F0DE
:104C1000F1F93100C9B22800FFF70EFF82465FFAB2
:104C20008AFABAF1FE0F02DB5046C0B231E102ABA4
:104C300002225146C9B22800FBF790FFC0B20028FB
:104C400010D1F6B20196DFF89003009041F6C4232C
:104C500040F28972DFF88C12DFF86C0300F0CAF9B9
:104C6000FF2016E102AA02212800FBF74EFFC0B286
:104C7000002810D0F6B20196DFF86003009041F6EC
:104C8000C52340F28F72DFF85C12DFF83C0300F0BE
:104C9000B1F9FF20FDE09DF808000190DFF8400326
:104CA000009043F6E12340F29372DFF83812DFF808
:104CB000180300F09FF9139CE4B2002C15D00420D7
:104CC00001904046C0B200903B009BB25246D2B227
:104CD0009DF808102800FBF732FE9DF808005821C7
:104CE00001FB0050C0F868900DE0022001904046A2
:104CF000C0B200903B009BB25246D2B29DF8081061
:104D00002800FBF71CFE9DF80800582101FB00500D
:104D1000C0F834900F989DF80810582202FB0151FA
:104D200081F878009DF80800582101FB005010F12F
:104D30003C02B9F1210F2DD3484601F0A7FD9DF8A3
:104D40000810582202FB0151C8659DF8080058213F
:104D500001FB0050C0F860909DF80800582101FB4D
:104D60000050C06D00280FD1CDF80490DFF8740218
:104D7000009041F6C92340F2A5725A49DFF8480273
:104D800000F038F9FE2084E09DF80800582101FB6E
:104D90000050C26D0021109802E00B5C8B54491C3E
:104DA0004945FAD3E4B2002C0FD0C2208DF80C0094
:104DB0000020C0B204283CDAC1004A46CA4003A918
:104DC000C0B241180A71401CF3E7B9F1050F20D2B7
:104DD000D9F10400800050F023008DF80C0004206D
:104DE0000CE09DF80810582202FB0151C0B2411896
:104DF00091F8381003AAC0B28154401CC0B20828F0
:104E0000EFDB9DF80800582101FB0050C0F83890F6
:104E10000FE021208DF80C00002007E0C1004A4679
:104E2000CA4003A9C0B241180A71401CC0B204288C
:104E3000F4DB38008DF80D00BFB2380A8DF80E0093
:104E40008DF80F8011989DF80810582202FB01512F
:104E5000C86703AB5246D2B202212800FBF726FFF7
:104E6000C0B2002814D0F6B20196DFF87C010090A1
:104E700041F6D12340F2DE721A49DFF84C0100F00E
:104E8000B9F89DF808102800FBF720FDFF2000E08E
:104E9000002006B0BDE8F087BC060108F4FD00085C
:104EA000081A01086803010810B586B00C9C059427
:104EB000012404940B9C03940A9C0294099C019481
:104EC000089C0094DBB292B2C9B2FFF75BFE06B059
:104ED00010BD0000F8060108280101088C0801082F
:104EE0009C090108DCF70008201E01083C1E01088F
:104EF000C0C62D00D009010860100108480C010847
:104F0000A4000108A803010870B584B004000E00D5
:104F1000150000208DF80800002028603100C9B27B
:104F20002000FFF789FDC0B2FE2801DB852035E0B7
:104F300002AB02220100C9B22000FBF70FFEC0B293
:104F400000280DD0F6B201962948009041F6F123D1
:104F500040F6571225491C4800F04CF885201DE00A
:104F60009DF80800582101FB0040C06A28609DF8A8
:104F70000800582101FB004090F82A00012807D0C2
:104F80009DF80800582101FB004090F82A0005E038
:104F90009DF808102000FBF799FC012004B070BDBB
:104FA000040A0108A81601088C1001081013010852
:104FB000E819010890280108F4260108C40801082E
:104FC00038130108780C0108B01D0108A80C01086D
:104FD000D80C0108080D0108FC0801083CFE000877
:104FE00084220108380D010860130108DCF700086D
:104FF000340701080EB400B582B003A9009102463F
:105000006B460121034878440A3002F037FD06BCA4
:105010005DF810FBE9D20000F0B583B004000D008C
:1050200016001F00A4B20194DFF8D005009042F6EC
:1050300009333122DFF8C815DFF8C805FFF7DAFFBA
:10504000EDB20195DFF8C005009042F61033322230
:10505000DFF8AC15DFF8AC05FFF7CCFF08980100CE
:10506000DFF8A825891A32D04FF6FE72891A10D0BF
:10507000DFF89C25891A54D0DFF89825891A35D095
:10508000DFF89425891A13D0203959D0491E65D0EC
:1050900072E0A4B20194DFF88405009042F6113367
:1050A0003522DFF85C15DFF85C05FFF7A3FF70E041
:1050B000EDB20195DFF86805009042F61233382210
:1050C000DFF83C15DFF83C05FFF794FF61E0A4B280
:1050D0000194DFF85005009042F613333B22DFF8CD
:1050E0002015DFF82005FFF785FF52E00196DFF875
:1050F0003805009042F614333E22DFF80415DFF83D
:105100000405FFF777FF0197DFF82005009042F6CE
:1051100015333F22DFF8E814DFF8E804FFF76AFFF1
:1051200037E0A4B20194DFF80805009042F6163388
:105130004222DFF8CC14DFF8CC04FFF75BFF28E055
:105140000190DFF8F004009042F617334522DFF8B3
:10515000B014DFF8B004FFF74DFF1AE00190DFF85C
:10516000D804009042F618334822DFF89414DFF890
:105170009404FFF73FFF0CE00190DFF8C0040090BB
:1051800042F620334B22DFF87814DFF87804FFF77B
:1051900031FF0020FEBDF0B585B007000C00150002
:1051A0001E0003AA02A9200080B2D7F8BC3298479B
:1051B0000299002901D0029893E00179EDB28D4265
:1051C0000DD3DFF87C040090002300222900C9B22F
:1051D000200080B2FFF720FFDFF8640481E00C9923
:1051E000002928D00168EDB20C2202FB05110978D4
:1051F000C90720D50068EDB20C2101FB050000783D
:105200000190DFF84004009042F630336C22DFF862
:10521000F013DFF8F003FFF7EDFEDFF82C04009049
:10522000002300222900C9B2200080B2FFF7F4FE5B
:10523000DFF8140455E0002E02D15FF0006050E06A
:105240000A9F39680268EDB20C2303FB05225268FD
:10525000914209D20068EDB20C2101FB05004068C3
:105260003860DFF8E8033CE00B990268EDB20C23EC
:1052700003FB052252780A700268EDB20C2303FB8F
:1052800005225468097809290BD022000068EDB284
:105290000C2101FB05008168300002F0A7F83C609A
:1052A0001EE00068EDB20C2101FB050080680100E2
:1052B0003A68002A01D03A6800E02200121803E0A0
:1052C00003783370401C761C0378002B01D0904289
:1052D000F6D3411A39603968A14201D20021017028
:1052E000002005B0F0BD2DE9F04F85B005000E009F
:1052F00017001C0003AA02A9300080B2D5F8BC3206
:1053000098478146029800280CD000200190D04890
:1053100000904AF6AA23BD22B949BA48FFF76AFEAF
:10532000029868E199F804000190CA4800904AF692
:10533000AA23C022B249B348FFF75CFEFFB201972F
:10534000C54800904AF6AA23C122AD49AD48FFF7EF
:1053500051FEDDF8388099F80400FFB2874217D378
:10536000B7480090D8F8003000223900C9B23000A8
:1053700080B2FFF751FE00200190B84800904AF635
:10538000AA23C6229E499F48FFF734FEAC4832E16B
:105390000F98002831D0D9F80000FFB20C2101FB92
:1053A00007000078022828D1D9F80000FFB20C21AC
:1053B00001FB070000780190A248009042F62533D7
:1053C000CA228F498F48FFF715FE90480090D8F801
:1053D000003000223900C9B2300080B2FFF71CFE55
:1053E000002001909E4800904AF6AA23CC228449CE
:1053F0008448FFF7FFFD8548FDE0002001909948B3
:1054000000904AF6AA23D0227D497E48FFF7F2FD9C
:10541000D9F80000FFB20C2101FB070090F801A0B1
:10542000D9F80000FFB20C2101FB0700D0F804B04E
:10543000D8F8000001908C4800904AF6AA23D322A5
:105440006F497048FFF7D6FDCDF804B0874800904B
:105450004AF6AA23D4226A496A48FFF7CBFD5FFACD
:105460008AFACDF804A0824800904AF6AA23D522F1
:1054700063496448FFF7BEFDD8F8000000280ED04D
:10548000D8F8000058450AD05FFA8AFABAF1090F35
:1054900040F09780D8F80000584580F092802100B5
:1054A0005046C0B26A6A904702900298002817D00E
:1054B00002980090D8F800305A463900C9B230003E
:1054C00080B2FFF7A9FD002001906A4800904AF6DB
:1054D000AA23F2224A494B48FFF78CFD02988AE042
:1054E00000200190644800904AF6AA23F62244491D
:1054F0004448FFF77FFDD8F800202100D9F80000CC
:10550000FFB20C2303FB07008468200001F06EFF4C
:105510005FFA8AFABAF1090F0ED1D8F8000058459F
:105520000AD2D9F80000FFB20C2101FB0700806805
:10553000D8F8001000220A54C8F800B000200190EA
:105540004E4800904AF6AA2340F203122C492D48F7
:10555000FFF750FD0398002820D00398FFB250F8C1
:10556000270000281AD03A00D2B249462800039BEF
:10557000FFB253F8273098470290029800280DD0C8
:10558000002001903E4800904AF6AA234FF485720D
:105590001B491C48FFF72EFD02982CE0D9F80000AB
:1055A000FFB20C2101FB07000078400707D53A0045
:1055B000D2B2310089B22800D5F8C0329847002015
:1055C00019E0C8F800B0002001902A4800904AF67F
:1055D000AA234FF48B720A490A48FFF70BFD2948AA
:1055E0000090D8F800305A463900C9B2300080B275
:1055F000FFF712FD234805B0BDE8F08F84230108B2
:10560000A4F50008601C0108A4200108020001069E
:1056100041000200CFFF02000100020098230108B0
:10562000AC230108F8110108D40E0108081801087C
:10563000000F0108680A0108980A0108BC20010847
:1056400011000906F4250108010001060500040502
:10565000D42001087C1C010804260108981C0108BC
:10566000B41C0108EC200108142601084C2901088B
:10567000C4270108D01C0108D41401082818010807
:10568000042101081000070610B5040008001100ED
:105690001A0080B2D4F8BC32984710BD30B583B040
:1056A00014001D006B4601AA89B2FFF7EDFF0199B6
:1056B00000290AD10099002907D00079E4B2844278
:1056C00003D20098E4B240F8245001983EBD7047E0
:1056D00000F5E0700268914203D343689A18914242
:1056E00002D380680028F5D17047DFF858070168B9
:1056F00091B94FF4803181604FF4805141604FF097
:10570000FF31C16001610421DFF83C274161C2F82B
:10571000BC11DFF8381701600120704701F1080360
:1057200013F0070305D001F10803C3F1080303F0E8
:1057300007035918D21A8161C26042F001034B601D
:10574000511828234B60DFF8FC160969C1617047C6
:105750002DE9F84F064601F1080010F0070008BFD8
:10576000884607D001F10800C0F1080000F00700EA
:1057700000EB010802F1080010F0070006D002F16A
:105780000800C0F1080000F0070082181546A5EBDC
:105790000800A0EB030903EB080B43F00300C8F873
:1057A0000400AB4528BF03F012FA2879C00758BFA0
:1057B00003F00DFAB9F1100F38BF03F008FAB06921
:1057C000854209D1F0684844F060C6F818B040F04E
:1057D0000100CBF804006DE1706985420BD1B0681F
:1057E0004844B060C6F814B040F00101CBF8041092
:1057F00040F80B005EE1686800F00301012940F009
:10580000AD80C008C0000190C00820283AD2D5F869
:1058100008A0EF680090BD4208BF03F0D8F95545D5
:1058200008BF03F0D4F968680099C008C000B0EB65
:10583000C10F18BF03F0CBF9009806EBC00000F1D0
:1058400028018A4507D031698A45C0F08280DAF89C
:105850000C10A9427DD1574506D1009A306801212C
:1058600091408843306076E02830874205D0306927
:1058700087426ED3B868A8426BD1CAF80C70C7F8DB
:1058800008A068E0EF68D5F818A0AF420CD0A8686F
:105890003169884223D3C168A94204BFB968A942CB
:1058A0001DD1C760B8601CE005F11400076837B966
:1058B00005F110000768A7B101E00846076807F185
:1058C00014010A68002A02BF07F110010A68002AC1
:1058D000F3D13169884202D30021016001E003F075
:1058E00076F9BAF1000F36D0E86906EB800000F5D2
:1058F000987001688D4208D10760A7B9EA6970689D
:10590000012191408843706025E03069824508D3C9
:10591000DAF81000A84214BFCAF81470CAF8107060
:1059200001E003F054F9B7B13069874211D3C7F8E9
:1059300018A0296929B1814226BF39618F6103F01E
:1059400046F9686938B13169884202D37861876164
:1059500001E003F03CF9019845198144686840086A
:10596000400068604FEAD90549F00100CBF8040017
:1059700049F80B90202D23D206EBC50000F1280733
:10598000BA46B9F1100F38BF03F021F9306820FA98
:1059900005F1C90704D40121A9400843306006E09D
:1059A000B868316988422CBF824603F010F9C7F805
:1059B00008B0CAF80CB0CBF808A0CBF80C7079E0AE
:1059C0005FEA192108BF002023D0B1F5803F28BF2E
:1059D0001F201ED2A1F58070000C00F0080081404D
:1059E000A1F58052120C02F004029140A1F580430F
:1059F0001B0CC0F10E0003F00203801AC01A99407C
:105A000000EBD130C11D29FA01F202F0010101EBD6
:105A10004000CBF81C000022CBF81420CBF810205B
:105A200006EB8001726822FA00F3DB0701F598713A
:105A300007D4012303FA00F010437060C1F800B0EE
:105A40001DE009681F280EBF00204008C0F11900A2
:105A500009FA00F000E011464A68D208D2004A452F
:105A600014D0C20F01EB820202F1100340001A6849
:105A7000002AF0D1306983421AD3C3F800B0CBF8C2
:105A80001810CBF80CB0CBF808B013E03269886876
:105A9000914228BF90420BD3C0F80CB0C1F808B0B7
:105AA000CBF80800CBF80C100020CBF8180001E070
:105AB00003F08DF808F10800BDE8E68F2DE9FA4DF6
:105AC0000546DFF8800384B0006808B9FFF70DFED3
:105AD000DFF870030499806841182F31401E21EAD5
