:020000040800F2
:10000000A08F00209D010008EB340008A5320008F5
:10001000E93400087F030008E14600080000000002
:10002000000000000000000000000000093C000883
:10003000D9080008000000000D370008D73C000870
:10004000B7010008B7010008B7010008B7010008B0
:10005000B7010008D9370008B7010008B701000848
:10006000B7010008B7010008B7010008B701000890
:10007000B7010008B7010008B7010008B701000880
:10008000B7010008B7010008B7010008B701000870
:1000900081030008B7010008B7010008B701000894
:1000A000B7010008B7010008B7010008B701000850
:1000B000B7010008B7010008B7010008B701000840
:1000C000B7010008B7010008B7010008B701000830
:1000D000B7010008B7010008B7010008B701000820
:1000E000B7010008B7010008B7010008B701000810
:1000F000B7010008B7010008B7010008B701000800
:10010000B7010008B7010008D93D0008B701000891
:10011000B7010008B7010008B7010008B7010008DF
:10012000B7010008B7010008B7010008B7010008CF
:10013000B7010008B7010008B7010008B7010008BF
:10014000B7010008B7010008B7010008B7010008AF
:10015000B7010008B7010008B7010008B70100089F
:10016000B7010008B7010008B7010008B70100088F
:10017000B7010008B7010008B7010008000000003F
:10018000B7010008B7010008DFF80CD000F0AAF8AA
:1001900000480047BD9C0008A08F0020064880470B
:1001A00006480047FEE7FEE7FEE7FEE7FEE7FEE75C
:1001B000FEE7FEE7FEE7FEE7813D00088901000853
:1001C000202A04DB203A00FA02F100207047914017
:1001D000C2F1200320FA03F3194390407047000056
:1001E0000649074A0868504343F239021044086040
:1001F000400870470149086070470000A0050020D2
:100200006D4EC64140EA01039B0703D009E008C9CF
:10021000121F08C0042AFAD203E011F8013B00F8CB
:10022000013B521EF9D27047D2B201E000F8012B17
:10023000491EFBD270470022F6E710B513460A4666
:1002400004461946FFF7F0FF204610BD10B5002206
:1002500000E0521C835C8C5CA34201D1002BF8D1DE
:10026000D8B2E1B2401A10BD30B5044600200346B2
:1002700000E05B1C934203D2E05CCD5C401BF8D0F5
:1002800030BD2DE9F05F0546002092469B4688462A
:100290000646814640241BE0284641464746224602
:1002A00000F032F853465A46C01A914110D3114615
:1002B00018462246FFF784FF2D1A67EB01084F46C8
:1002C000224601200021FFF77BFF17EB00094E417A
:1002D000201EA4F10104DFDC484631462A4643468D
:1002E000BDE8F09F064C074D06E0E06840F00103D2
:1002F00094E8070098471034AC42F6D3FFF748FF64
:100300002457010844570108202A04DB203A21FA27
:1003100002F00021704721FA02F3D040C2F120021E
:10032000914008431946704770B58C1810F8015B6E
:1003300015F0070301D110F8013B2A1106D110F87E
:10034000012B03E010F8016B01F8016B5B1EF9D182
:100350002B0705D40023521E0DD401F8013BFAE708
:1003600010F8013BCB1A921C03E013F8015B01F873
:10037000015B521EF9D5A142D8D3002070BDFEE723
:10038000014800F045BE00001037002010B50029DC
:100390007ED0826B4FF4D873D0F800C003EB01130A
:1003A0005CF803C00CF0040CC2F808C0BCF1000FEC
:1003B00077D0D0F800C05CF803C04FEADC0CC2F87C
:1003C00004C0D0F800C05CF8033003F00203D3602F
:1003D0004FF4DA73D0F800C003EB01135CF803C0EC
:1003E0000CF00F0CC2F810C01162D0F800C05CF81D
:1003F0000330C3F30723D3614FF4DC73D0F800C09C
:1004000003EB01135CF803C082F814C0D0F800C0FD
:100410005CF803C04FEA1C2C82F815C0D0F800C06D
:100420005CF803C04FEA1C4C82F816C0D0F800C03C
:100430005CF803301B0ED3754FF4DE73D0F800C0A8
:1004400003EB01135CF803C082F818C0D0F800C0B9
:100450005CF803C04FEA1C2C82F819C0D0F800C029
:100460005CF803C04FEA1C4C82F81AC0D0F800C0F8
:100470005CF803301B0ED3762022D9B103681A61D1
:100480000268536923F05003536190F83C2001E067
:1004900005E006E0222A15D0322A13D017E0426B7D
:1004A00078E7D0F800C05CF803C04FEA5C5CC2F8A3
:1004B00000C086E70368DA600268536923F00A0324
:1004C0005361E2E70268536923F40F435361122337
:1004D000012269B190F83C1052291FD0622920D026
:1004E000722922D080F83C2001F030F8002010BDA5
:1004F00090F83C10422906D0622907D0722909D011
:1005000080F83C20F0E780F83C30EDE7322180F8BD
:100510003C10E9E7522180F83C10E5E780F83C30D8
:10052000E2E7222180F83C10DEE7422180F83C100F
:10053000DAE710B501684A6922F001024A6190F8D1
:100540003C10122904D101684A6922F40F424A6121
:1005500090F83C1042290AD052290CD072290ED0B2
:10056000012180F83C1001F069F9002010BD222122
:1005700080F83C10F7E7322180F83C10F3E7622165
:1005800080F83C10EFE7000038B50C466A4621467B
:1005900008F01EF9012810D00B4802783AB1002269
:1005A000027001225102094801F0DEFE05E001223D
:1005B00002702021064801F0D7FE0222214605489C
:1005C00006F000FA38BD000038000020001C024090
:1005D000001002409001002038B504460D466A46DE
:1005E0002946204608F0F4F802222946034806F07E
:1005F000E9F92946204600F003F838BD90010020B3
:1006000030B587B004460D464FF0010CCDF818C048
:100610001B48002341684A1C42601A48012A0ED038
:10062000022A1CD0032A08D10521204610F0BEFE64
:1006300001222946204609F0ABFB07B030BD06A9D0
:100640000193049302910390CDF800C002234FF46C
:10065000C0522946204614F07AFB07B030BD06A9E7
:100660000193049302910390CDF800C0022341F658
:1006700001022946204614F06AFB07B030BD000095
:1006800038000020D9050008D0F8042252F82120B3
:10069000C2F30742D0F808C24FF0FF332CF81130F4
:1006A0000121831883F81812D0F814321146184724
:1006B0002DE9F007DDF820C0099E079C00284ED0E8
:1006C000FF27ACEB02056DB2002D04DD91F8008030
:1006D00008FA05F505E091F80080C5F1000528FA53
:1006E00005F505F0FF0902DDCCF1080501E0C2F1D6
:1006F0000805EDB2854200D905460CEB0508CCF1A2
:10070000080C07FA08FA27FA0CFC4AEA0C0C29EA4A
:100710000C0994F800A00AEA0C0C4CEA090C84F8C5
:1007200000C02A44D2B2072A07D9002213B14FF0E1
:10073000FF3C01E04FF0010C614408F0FF0CBCF1FC
:10074000070F08D94FF0000C16B14FF0FF3801E049
:100750004FF001084444401BC0B20028B1D1BDE8AD
:10076000F007704770B5054601F006FE074C61685A
:10077000401AB0F5FA7F07D301F0FEFD606028460D
:10078000BDE8704000F004B870BD0000000000201B
:1007900070B588B004462C4D28780026012809D071
:1007A000022814D0052803D1204607F0F3F82E7054
:1007B00008B070BD6660A660E66002202870204622
:1007C00007F09EF821A003F0B3FF08B070BD2046EB
:1007D00007F0F2F888B103202870201D08F070FEA1
:1007E000024624A1684603F0B3FF694622A003F045
:1007F0009FFF0120687008B070BD606A807A04288D
:10080000F9D904202870204607F0C4F8254807903D
:100810006FF07F4006902448059005AB06AA07A913
:10082000204609F0CFFC201D08F04AFE024611A127
:10083000684603F08DFF1DA003F07AFF694620A0F3
:1008400003F076FF08B070BD000000202020537434
:100850006174653A204C6F6F6B696E6720666F72CA
:10086000204448435020736572766572202E2E2EE8
:100870000A0000002573000049502061646472651D
:1008800073732061737369676E6564206279206198
:100890002044484350207365727665723A20257370
:1008A0000A000000C0A8030EC0A80301444843503A
:1008B0002054696D656F7574202121200A000000A5
:1008C0005374617469632049502061646472657374
:1008D000733A2025730A00007047000010B582B0FB
:1008E00004460FA0009043F220336A2211A1019424
:1008F0001DA003F01DFFB4F1FF3F0CD02149B1F959
:100900000000844201D1401E08801F4A04EB4401CC
:10091000002002F8310002B04FF0FF3010BD00009F
:1009200044656C416C61726D2E2068616E646C650B
:10093000203D20002E2E5C4D6964646C65776172E9
:1009400065735C63616E666573746976616C5C7314
:1009500072635C74696D65725F63616E6665737402
:100960006976616C2E630000257328256429203A7E
:100970002030782558202573203078256C580D0AB2
:100980000000000030000020DC370020006800F587
:100990008050816921F0020181617047006800F593
:1009A0008050816941F0020181617047006800F563
:1009B0008050816921F4005181617047006800F521
:1009C0008050816941F400518161704781B00749CD
:1009D0004FF4FA520968B1FBF2F14843009000BFAE
:1009E0000098411E0091FAD201B070471800002013
:1009F00038B50446206800F58050816941F48011C3
:100A00008161206800F58050806900900120FFF727
:100A1000DDFF2168009801F58051886138BD1079AB
:100A2000537940EA032301F1804000F5203003644C
:100A30001178D37841EA0361937852781B0443EA32
:100A400002221143416470472DE9F041AEB00446E3
:100A5000002904D04FF40060E060C000A0600025D1
:100A6000109511951295139514951595E069002828
:100A70007DD016954FF400701790189519951A951A
:100A80001B951C954FF04008CDF874801E951F955E
:100A900020952195229523952495259580272697A5
:100AA0002795289529952A952B952C9520680168DE
:100AB000474A1140E368A2681A43169B1A4342F45E
:100AC00000721143016020680668012000F0B7FE43
:100AD000206806602068C0F804802068466801200D
:100AE00000F0ADFE20684660206885602068C56023
:100AF000206881694FF64172114041F080018161A7
:100B000020688669012000F09AFE206886612068CE
:100B1000C5612068C669012000F091FE2068C661A9
:100B20000095B80401900295011103910495059573
:100B30000695079504210891099040120A908001BA
:100B40000B9040120C900D970E950F95206800F5B4
:100B5000805081691F4A114041F0040141F0087141
:100B60008161206800F580508569012000E019E06E
:100B700000F065FE206800F5805085612168164808
:100B800001F580510860206800F58050056801205B
:100B900000F055FE206800F580500560A06901282E
:100BA00004D00CE04FF48060169063E7206800F5F5
:100BB0008050C16941F0400141F48031C1616269F6
:100BC0002EB02046BDE8F0410021FFF728BF00000D
:100BD0000F8120FF233FDEF88020C10238B5044694
:100BE0002068016821F0040101602068006800901D
:100BF0000120FFF7EBFE21680098086038BD38B58A
:100C000004462068016841F0040101602068006822
:100C100000900120FFF7DAFE21680098086038BDD7
:100C200038B504462068016821F008010160206899
:100C3000006800900120FFF7C9FE21680098086055
:100C400038BD38B504462068016841F008010160EC
:100C50002068006800900120FFF7B8FE2168009826
:100C6000086038BD70B58EB01C4D1B4E2E605320F1
:100C700068600024AC604FF6FF70E8602C61284685
:100C800002F02FF8B0140A900AA9284602F064F87E
:100C90000894099408A9284601F0F0FF284602F0BC
:100CA000DDF901940E480088029003940820049016
:100CB000059406940794002201A9284602F08FF9B2
:100CC00001220021304603F0E7F82868C16841F0AE
:100CD0000201C1600EB070BD000C004094370020CE
:100CE000280000202DE9F04F83B080460F464FF0DA
:100CF000000AD8F814004488D8F81800B0F8029018
:100D0000002C1DD000254C4500F250804FF0040B04
:100D1000D8F804000BEBC401415C03291FD805F58A
:100D2000945034A10091019041F6C82340F24B72D7
:100D300038A142A003F0FCFC03B0FF20BDE8F08F17
:100D400045A0009041F6C62340F2457231A10197BB
:100D50003AA003F0EDFC03B0FF20BDE8F08F50F89F
:100D60003400C06A067805F5945045A100910190C1
:100D700041F6D2234FF4EA6226A130A003F0D8FC5A
:100D800042A0009041F6D32340F2517221A1019676
:100D90002AA003F0CDFCBE4202D14FF0010A05E0CB
:100DA000601C84B2681CC5B24C45B1D9BAF1000FC1
:100DB00010D005F5945039A10091019043F6D0234D
:100DC00040F25E7213A11DA003F0B2FC03B02846EE
:100DD000BDE8F08F3BA0009041F6C92340F25B7262
:100DE0000CA1019715A003F0A3FC03B0FE20BDE801
:100DF000F08F0000537562696E646578203320209F
:100E00006E6F7420666F756E6420617420696E6405
:100E1000657820002E2E5C4D6964646C6577617284
:100E200065735C63616E666573746976616C5C732F
:100E300072635C73646F2E630000000025732825C5
:100E40006429203A203078255820257320307825D1
:100E50006C580D0A000000004E6F2053444F206371
:100E60006C69656E7420696E64657820666F756E56
:100E70006420666F72206E6F646549642000000014
:100E8000696E646578203A20000000006E6F64652A
:100E90004964536572766572203A20002020202034
:100EA0002020202053444F20636C69656E742064B9
:100EB0006566696E656420617420696E646578207A
:100EC000203A200053444F2E204572726F722E201C
:100ED0004E6F20636C69656E7420666F756E64205A
:100EE000746F20636F6D6D756E69636174652077D3
:100EF000697468206E6F6465203A2000087D0122C5
:100F000082404148D0F8003243F00103C0F800327B
:100F1000D0F8003223F47C53C0F80032D0F800320D
:100F2000D1F824C043EA0C23C0F80032D0F81C32B8
:100F30009343C0F81C32CB69002B1AD1D0F80C3285
:100F40009343C0F80C32B1F80CC04B686CF31F43EC
:100F5000D1F814C000EBCC0CCCF84032B1F808C08A
:100F60000B686CF31F43D1F814C000EBCC0CCCF829
:100F70004432CB69012B1AD1D0F80C321343C0F89C
:100F80000C32B1F800C04B686CF31F43D1F814C0A9
:100F900000EBCC0CCCF84032B1F808C0CB686CF355
:100FA0001F43D1F814C000EBCC0CCCF844328B6951
:100FB0003BB1D0F804321343C0F804320B6933B1AB
:100FC0000AE0D0F804329343C0F80432F6E7D0F8D0
:100FD00014329343C0F814320B69012B04D1D0F8BA
:100FE00014321343C0F81432096A012904D1D0F82D
:100FF0001C121143C0F81C12D0F8001221F001019C
:10100000C0F80012002070470064004070470000E4
:1010100070B5044600252068C168C1F3001142691B
:10102000C2F3C0021023002902D00AB15D01C360DF
:1010300020680169C1F300114269C2F3801219B13D
:1010400012B145F4806503612068416911F0010F18
:1010500032D081686B4A32EA010120D000218268D7
:10106000694B33EA02021CD000228368DFF89CC17E
:101070003CEA030317D00023114319431CD08168B5
:10108000C1F340018268C2F340228068C0F340404F
:101090001143084309D02046FFF74BFA07E001212E
:1010A000DDE70122E1E70123E6E745F4006520687A
:1010B0008168574A114381602068C16801F00301CB
:1010C0004069C0F3400021B118B100212046FFF76C
:1010D0005DF92068016901F003014069C0F3001067
:1010E00021B118B101212046FFF750F9206C2843A7
:1010F00020642068816901F001024169C1F3002187
:101100004369C3F3C0332AB121B11BB1216C41F053
:10111000010121648169C1F340014269C2F34022A7
:101120004369C3F3C03329B122B11BB1216C41F033
:10113000020121648169C1F380024169C1F3802108
:101140004369C3F3C0332AB121B11BB1216C41F013
:1011500004012164816911F0700F08D000214269F7
:10116000C2F3C0224369C3F3C03311B136E0012199
:10117000F5E79AB393B3816901F0700140291BD060
:1011800006DC102909D020290CD0302922D10EE00C
:10119000502916D060291DD118E0216C41F00801BA
:1011A000216417E0216C41F01001216412E0216CF0
:1011B00041F0200121640DE0216C41F040012164E7
:1011C00008E0216C41F08001216403E0216C41F4CE
:1011D00080712164816921F070018161206C002897
:1011E0000FD0216804204860012084F83C0020686A
:1011F000416921F05B0121F40F4141612046FFF775
:1012000005FF70BD03000004000300080000031088
:10121000190501002DE9F04104460026002C04D0F8
:1012200094F83C00002718B107E00120BDE8F081E8
:1012300084F83D70204600F0BFF8022084F83C009E
:101240002068016821F0020101602068016841F016
:101250000101016001F090F80546206840684FF0F8
:10126000030810F0010F10D101F086F8401B0A2886
:1012700006D984F83C8084F83D700320BDE8F081F5
:101280002068406810F0010FEED02068416811F02E
:10129000010F70D0A169012950D0016821F08001AF
:1012A0000160E06901284ED02068016821F040010A
:1012B0000160206A01284CD02068016821F02001DB
:1012C0000160606A01284AD02068016821F010019D
:1012D0000160A06A012848D02068016821F0080157
:1012E0000160E06A012847D02068016821F004010C
:1012F0000160E168A06862690843216911430843FD
:101300006168491E08432168C8612068016821F0AE
:101310000101016001F030F805462068406810F0D6
:10132000010F34D001F028F8401B0A282AD984F88C
:101330003C8084F83D700320BDE8F081016841F0F5
:1013400080010160ADE72068016841F04001016063
:10135000AFE72068016841F020010160B1E7206833
:10136000016841F010010160B3E72068016841F0B5
:1013700008010160B5E710E02068016841F0040150
:101380000160B6E72068406810F0010FCAD12068FC
:10139000406810F0010F00D10126012E05D0042075
:1013A00084F83C000120BDE8F0812764012084F826
:1013B0003C000020BDE8F08170B586B00068A0F167
:1013C0008041B1F5C84135D11B48026842F0007236
:1013D0000260006800F0007000901848026842F453
:1013E00080720260026802F480720092026842F029
:1013F00002020260006800F0020000904FF40075E5
:1014000001950224029403910926059601A90C482E
:1014100000F0AAFE019502940494059601A90948DA
:1014200000F0A2FE00221146142001F021F8142041
:1014300001F012F806B070BD40380240303802406A
:10144000000402400020024010B400290FD190F89F
:101450003C20222A0ED090F83C20422A0AD090F854
:101460003C20622A06D090F83C20722A02D0012942
:1014700003D012E010BC0220704790F83C20322AC2
:1014800037D090F83C20522A33D090F83C20622A82
:101490002FD090F83C20722A2BD090F83D20012AC2
:1014A0002AD0012280F83D204FF0620C722331B324
:1014B00090F83C20122A38D0222A3AD0422A3BD037
:1014C000322280F83C20002303640268D2F814C062
:1014D00048F601744CEA040CC2F814C080F83D30A0
:1014E00069B30068416941F05001416110BC0020BE
:1014F000704710BC0220704710BC0220704790F863
:101500003C20122A07D0322A09D0522A0AD022229D
:1015100080F83C20D7E7422280F83C20D3E780F8CF
:101520003CC0D0E780F83C30CDE7522280F83C2028
:10153000C9E780F83CC0C6E780F83C30C3E70068E4
:10154000416941F00A014161D0E7000070B584B003
:101550000024184E706B0188ADF80410C168022990
:1015600024D000218DF80610007C8DF8070000289B
:101570000FD901AD706B04F11401425C281902719E
:1015800021460DA003F0D4F8641C9DF80700A0428A
:10159000F0D810A003F0CCF801A9184804F09EFC84
:1015A00000210448FFF750FF04B070BD01218DF801
:1015B0000610D9E710370020D6F7BBFAB6CB527821
:1015C0004D53472E646174615B25645D3D25780A47
:1015D0000000000063616E206D617374657220729B
:1015E000657663697665206461746121212121211A
:1015F000212121212121210A000000009001002049
:101600002DE9F05F04460E462268906810F0806F66
:1016100008D1906810F0006F04D1906810F0805FDE
:1016200000F0008194F83D00012813D0012084F8D7
:101630003D0094F83C0022280FD0322811D06228B7
:1016400013D0122084F83C00906810F0806F10D006
:10165000002515E00220BDE8F09F422084F83C0000
:10166000F2E7522084F83C00EEE7722084F83C0058
:10167000EAE7906810F0006F01D0012500E0022534
:101680004FF4C07000EB0510115801F0010111502A
:10169000216B8B68002B75D0226852F800C04CEA91
:1016A0000303D1F80CC049684CEAC1011943115039
:1016B000216B0A7C02F00F020A614FF4C2712268AA
:1016C00001EB0511535823F00F0353502268535870
:1016D000D4F830C0DCF810C043EA0C035350216B3F
:1016E0000A7DCB7D42EA03628B7D497D1B0443EA80
:1016F000012111434FF4C473226803EB0513D15049
:10170000216B0A7ECB7E42EA03628B7E497E1B04FC
:1017100043EA012111434FF4C673226803EB05131A
:10172000D15021680A5842F001020A5000F024FE0C
:101730000746DFF8FC80DFF8FC90DFF8FCA04FF0F4
:10174000000B55B3012D2ED0206880683AEA0000C6
:1017500040D0B6F1FF3F35D026B100F00DFEC01BE2
:10176000B0422FD9032084F83C0015B3012D24D0BA
:1017700021684FF40000886084F83DB00320BDE884
:10178000F09FFFE722681358D1F80CC0098843EA9C
:101790000C0343EA415111508AE72068806838EA17
:1017A000000017D0D5E72068806839EA000011D022
:1017B000CFE7216880208860DEE721684FF4004091
:1017C0008860D9E7B5B1012D1AD0206880683AEA5F
:1017D0000000BED194F83C00422817D0522819D0FE
:1017E00072281BD0012084F83C0084F83DB0002012
:1017F000BDE8F09F2068806838EA0000A9D1E9E7D9
:101800002068806839EA0000A3D1E3E7222084F849
:101810003C00EAE7322084F83C00E6E7622084F8E6
:101820003C00E2E7042084F83C000120BDE8F09F82
:10183000030000040003000800000310704731B5E6
:1018400000F09AFD0546009CB4F1FF3F00D0641CF7
:1018500000F092FD401BA042FAD338BD2DE9F041C3
:1018600005460C4695F84500012877D0012785F8F4
:101870004570022085F84400002C72D02868016869
:10188000434A114063682268D4F80CC01A43A36825
:1018900043EA0C031A43AB681A4323691A4363698A
:1018A0001A43EB681A43A3691A43E3691A43236A8C
:1018B0001A43636A1A43A36A1A43114301602868F2
:1018C00006680120FFF7BBFF28680660216BE06A0D
:1018D000A26B0843616B11430843E16B0843216C21
:1018E0000843616C0843A16C084329684860286874
:1018F00046680120FFF7A3FF286846602968E06C6E
:1019000088602968206DC860286881694FF6417237
:101910001140E36DA26DB4F854C01A43236E43EA3C
:101920000C431A43636E1A43A36E1A431143816139
:10193000286886690120FFF782FF28688661216F89
:10194000E06E08432968C8612868C4690120FFF770
:1019500076FF2868C46114E000E002E00220BDE8E0
:10196000F0812868016821F49041EB68AA681A4365
:1019700011430160286804680120FFF760FF2868B0
:10198000046085F84470002085F84500BDE8F081CA
:101990000F8120FF2DE9F0034FF0000C90F8454037
:1019A000012C21D0012780F84570022480F84440A2
:1019B0008162002B21D94FF0004944F2F4585E1E99
:1019C00001EB4C14C4F80090C4F80480CCEBCC15A7
:1019D00005EB450502EB8505A5608569B44507D291
:1019E00004F12005E56004E0BDE8F0030220704743
:1019F000E1600CF1010C9C45E2D3026802F58052D3
:101A0000D16080F84470002180F84510BDE8F003F3
:101A1000002070472DE9F003002490F845C0BCF188
:101A2000010F1BD0012780F845704FF0020C80F8A1
:101A300044C0C162002B27D94FF480185E1E01EB11
:101A4000441CCCF80080C4EBC41505EB450502EB43
:101A50008505CCF80850C56925B109E0BDE8F0035B
:101A600002207047DCF8005045F44009CCF80090A3
:101A7000B44204D20CF12005CCF80C5001E0CCF8B3
:101A80000C10641C9C42DAD3026802F5805211618A
:101A900080F84470002180F84510BDE8F003002074
:101AA000704790F8451001290DD0012380F845308A
:101AB000022180F84410816A0A684FF0000C12F08D
:101AC000004F02D02CE0022070470A6812F4807F99
:101AD00016D0826B521C8263012A00D101634163DC
:101AE0000A68C2F30D42121FC263026B926802645D
:101AF000C968816280F8443080F845C00020704792
:101B00000A6812F4007F06D00163C0F834C0836312
:101B1000C968816204E0826B521C8263C968816279
:101B200080F8443080F845C0012070472DE9F0432B
:101B300083B0044600270297B846002C03D094F8DF
:101B4000440020B108E003B00120BDE8F08384F830
:101B50004570204600F022F98648016841F4804132
:101B60000160006800F4804001908348016821F41E
:101B7000000101600168226A11430160206800F5DC
:101B80008050016841F00101016000F0F5FB05465D
:101B9000206800F58050006810F0010F14D000F0AC
:101BA000EBFB401BB0F5FA7F07D9032084F8440013
:101BB00084F8457003B0BDE8F083206800F58050DC
:101BC000006810F0010FEAD12068006920F01C05C0
:101BD00000F092FD69496A4A0144914202D245F0FF
:101BE000080516E06749684A0144914202D245F06F
:101BF0000C050EE06549664A0144914209D36549E6
:101C000008446549884202D245F0040501E045F0E8
:101C10001005206805614FF400420021204600F0C5
:101C200060FA4FF0010948B101212046FEF70CFF90
:101C300084F8449003B00120BDE8F083FF20FFF753
:101C4000FEFD606800286FD000F096FB064641F26A
:101C5000883502AA0121204600F01CF900F08CFB17
:101C6000801BA8420BD901212046FEF7EDFE84F827
:101C7000449084F8457003B00320BDE8F0830298D7
:101C800010F0040FE5D04FF480520021204600F000
:101C900028FA48B101212046FEF7D6FE84F8449088
:101CA00003B00120BDE8F08300F066FB064602AAFF
:101CB0000121204600F0EEF800F05EFB801BA842F8
:101CC0000BD901212046FEF7BFFE84F8449084F82A
:101CD000457003B00320BDE8F083029810F0200F98
:101CE000E5D002AA1021204600F0D4F848B1012125
:101CF0002046FEF7A9FE84F8449003B00120BDE819
:101D0000F083029810F0040F03D04FF40061E160FB
:101D100000E0E76010F0020F01D0A7601FE04FF471
:101D20008040A0601BE0FFE7E068A168C0F3CF003F
:101D3000C1F34F0140EA01020021204600F0D1F931
:101D400048B101212046FEF77FFE84F8449003B09D
:101D50000120BDE8F08340F6FF70FFF770FD4146BB
:101D60002046FEF771FE84F8449003B00020BDE8E1
:101D7000F0830000443802400438014000D3CEFE16
:101D8000C0E1E40040F1E9FD40787D0100796CFCA0
:101D9000005A6202001F0AFA80F0FA02F0B587B01A
:101DA00000243748016841F001010160016801F039
:101DB00001010191016841F004010160016801F035
:101DC00004010191016841F002010160016801F024
:101DD00002010191016841F040010160016801F0D8
:101DE00040010191016841F000710160016801F05A
:101DF00000710191016841F080610160016801F0AA
:101E000080610191016841F000610160006800F0AB
:101E1000006001901B4E01220421304600F0A4FA1C
:101E20000421029101210391049402250595069451
:101E300002A9304600F098F93220029003950494EC
:101E4000032605960B27069702A90F4800F08CF988
:101E500086200290039504940596069702A90B48E4
:101E600000F082F94FF4D040029003950494059657
:101E7000069702A9064800F077F907B0F0BD000008
:101E800030380240000402400008024000000240D6
:101E9000001802402DE9F0410446174694F844002A
:101EA00082282CD0822084F844002068026902F045
:101EB0001C02238A4FF4784C0CEAC3231A434FF4D4
:101EC000F86303EA8111114321F0020141F0010698
:101ED000066100F051FA054616F0010F4FF00106B9
:101EE00015D000F049FA401BB0F5803F0AD384F8C2
:101EF0004460002084F845000320BDE8F081022002
:101F0000BDE8F0812068006910F0010FE9D1206878
:101F1000406980B2386084F844600020BDE8F081F8
:101F200070B5044694F8450001281AD0012584F8BC
:101F30004550022084F844002046FEF782FE2046E9
:101F4000FEF75DFE2046FEF753FD2046FEF736FD08
:101F50002046FEF723FD84F84450002084F8450015
:101F600070BD022070BD70B5044694F8450001288C
:101F70001AD0012584F84550022084F844002046F8
:101F8000FEF714FD2046FEF701FD2046FEF726FE73
:101F90002046FEF72DFD2046FEF742FE84F8445011
:101FA000002084F8450070BD022070BD2DE9F001CD
:101FB000002290F84530012B17D0012580F84550BC
:101FC000022380F84430002499B1D0F82CC0DCF80A
:101FD000003013F0004F14D0122180F8441080F824
:101FE0004540BDE8F00101207047BDE8F001022046
:101FF000704780F8445080F84540BDE8F00101206A
:10200000704740F2F456B14208D9B1FBF6F3B1FB88
:10201000F6F706FB171717B15B1C00E00123012B35
:1020200016D0002B48D9C3F10107C7EBC71707EB40
:10203000470701EB8701A3F1010CC1F30C07C16A4B
:10204000D1F8008028F04058C1F800809AB119E01A
:10205000DCF8002042F04052CCF80020C26AC1F304
:102060000C015160C16A0A6842F000420A60C16A0C
:10207000C968C16220E0C16AD1F8008048F0805888
:10208000C1F80080C16A4E60624508D1C16AD1F8CA
:10209000008048F00058C1F80080C16A4F60C16AF2
:1020A000D1F8008048F00048C1F80080C16AC968D2
:1020B000C162521C9A42C2D3016801F580514A693B
:1020C00012F0040F05D004224A61016801F5805125
:1020D0004C6080F8445080F84540BDE8F001002095
:1020E000704770B5044694F84400422830D042202E
:1020F00084F844002068036903F01C03B4F810C09E
:102100004FF4784505EACC2C4CEA03034FF4F86C05
:102110000CEA8111194341F0020141F0010691B22C
:1021200041612068066100F027F9054616F0010FAD
:102130004FF0010613D000F01FF9401BB0F5803FAF
:1021400008D384F84460002084F84500032070BD63
:10215000022070BD2068006910F0010FEBD184F8F7
:102160004460002070BD00002DE9F84F0022DFF828
:10217000E481DFF8E491DFF8E4A14FF0030E0F27CC
:10218000012303FA02F50B682B40AB427ED1D1F854
:1021900004C0BCF1020F02D0BCF1120F12D14FEA01
:1021A000D20C00EB8C0CDCF820605407E40E07FA2C
:1021B00004FB26EA0B06D1F810B00BFA04F4344302
:1021C000CCF8204006684FEA420C0EFA0CF4A64305
:1021D00091F804B00BF0030B0BFA0CFB4BEA06066C
:1021E00006604E68012E05D0022E03D0112E01D0BC
:1021F000122E11D18668A643D1F80CB00BFA0CFB55
:102200004BEA06068660466826EA05050E79C6F39F
:102210000016964035434560C56825EA04048D687C
:1022200005FA0CFC4CEA040CC0F80CC0D1F804C050
:102230001CF0805F6FD0D8F800C04CF4804CC8F818
:1022400000C0D8F800C00CF4804CCDF800C022F0DB
:10225000030C0CF1804404F59834D4F808C89507B1
:102260002D0F07FA05F62CEA0606A0F1804CBCF506
:10227000003C56D0BCF5806C56D0BCF5806C56D076
:10228000BCF5806C56D0BCF5806C00E043E054D0C7
:10229000BCF5806C54D0BCF5806C54D0BCF5806C1F
:1022A00054D04FF0080C0CFA05FC4CEA060CC4F8AC
:1022B00008C8D9F800C02CEA030C4C6814F4803F1D
:1022C00001D04CEA030CC9F800C0254CD4F800C07A
:1022D0002CEA030C4D6815F4003F01D04CEA030CC6
:1022E000C4F800C0DAF800C02CEA030C4C6814F4FF
:1022F000801F01D04CEA030CCAF800C0194CD4F876
:1023000000C02CEA030C4D6815F4001F01D04CEA04
:10231000030CC4F800C0521C102AFFF431AFBDE812
:10232000F88F4FF0000CBEE74FF0010CBBE74FF009
:10233000020CB8E74FF0030CB5E74FF0040CB2E71E
:102340004FF0050CAFE74FF0060CACE74FF0070C71
:10235000A9E7000044380240003C0140083C01402D
:10236000043C01400C3C0140002A01D081617047CF
:10237000090481617047000001480068704700004F
:102380001400002002480168491C016070470000E9
:102390001400002010B50B48016841F40071016081
:1023A000016841F480610160016841F4807101605D
:1023B000032000F091F8002000F006F800F018F873
:1023C000002010BD003C024010B5044607484FF401
:1023D0007A720068B0FBF2F000F036FC0022214671
:1023E000501E00F045F8002010BD0000180000202D
:1023F00010B5032000F070F8002211466FF00B00BA
:1024000000F036F8002211466FF00A0000F030F8B4
:10241000002211466FF0090000F02AF80022114650
:10242000501F00F025F800221146101F00F020F880
:1024300000221146901E00F01BF800221146501E8B
:1024400000F016F800221146052000F011F8BDE852
:1024500010400520AFF3008000F01F01012202FAB6
:1024600001F14009800000F1E020C0F80011704740
:1024700010B4184B1B68C3F30223C3F1070CBCF163
:10248000040F01D94FF0040C1C1D072C01D20023AE
:1024900000E0DB1E012404FA0CFCACF1010C0CEA98
:1024A0000101994004FA03F35B1E1A40114300280E
:1024B00008DA00F00F0000F1E020090180F8141D97
:1024C00010BC704700F1E020090180F8001410BC36
:1024D000704700000CED00E000F00700064A1168AC
:1024E0004FF6FF03194041EA002040F0FD7040F034
:1024F00080601060704700000CED00E02DE9F05F97
:1025000004460E46DFF8D091D9F80000F7B200F08B
:102510000F00B0420AD289F80070D9F8000000F02C
:102520000F00B04202D00120BDE8F09F2078DFF814
:10253000AC8110F0020F07D0D8F80000A16820F09D
:10254000F0000843C8F80000207810F0010F51D0C7
:1025500060686349012808D002280DD003280BD0F9
:10256000096811F0020F2ED00AE0096811F4003F4B
:1025700006D10120BDE8F09F096811F0007F1FD04F
:10258000D8F8001021F003010843C8F80000FFF755
:10259000F3FE0546606841F2883A012816D0022809
:1025A00029D003283CD0D8F8000010F00C0F51D0EF
:1025B000FFF7E2FE401B504547D90320BDE8F09FDE
:1025C0000120BDE8F09F0120BDE8F09FD8F8000091
:1025D00000F00C0004283DD0FFF7CEFE401B504514
:1025E00002D90320BDE8F09FD8F8000000F00C00ED
:1025F0000428F1D12EE0D8F8000000F00C000828E3
:1026000028D0FFF7B9FE401B504502D90320BDE892
:10261000F09FD8F8000000F00C000828F1D119E074
:10262000D8F800004FF00C0B3BEA000012D0FFF787
:10263000A3FE401B504502D90320BDE8F09FD8F807
:1026400000003BEA0000F2D104E0D8F8000010F0EE
:102650000C0FADD1D9F8000000F00F00B0420AD93C
:1026600089F80070D9F8000000F00F00B04202D0E5
:102670000120BDE8F09F207810F0040F07D0D8F8B3
:102680000000E16820F4E0500843C8F8000020781A
:1026900010F0080F08D0D8F80000216920F460403D
:1026A00040EAC100C8F8000000F058F8D8F800105F
:1026B000F02292FAA2F201F0F001B2FA82F2D140D5
:1026C000084A515CC840084908600020FFF77CFEBA
:1026D0000020BDE8F09F0000003C024008380240A6
:1026E00000380240784D01081800002001490120FF
:1026F000C864704700004742014800687047000006
:102700001800002000B5FFF7F7FF074909684FF4EC
:10271000E05292FAA2F201F4E051B2FA82F2D14010
:10272000024A515CC84000BD08380240884D01088B
:1027300000B5FFF7E1FF074909684FF4604292FADC
:10274000A2F201F46041B2FA82F2D140024A515C35
:10275000C84000BD08380240884D010810B41F4829
:10276000006810F00C011E481BD04FEA600C0429D1
:1027700016D0082915D11B4A116801F03F011368D2
:1027800013F4800F47F6C0730DD0BCFBF1F0116855
:10279000194093FAA3F3B3FA83F3D94048430CE00A
:1027A000604610BC7047B0FBF1F01168194093FA15
:1027B000A3F3B3FA83F3D940484311684FF440328E
:1027C00092FAA2F201F44031B2FA82F2D140491CED
:1027D0004900B0FBF1F010BC70470000083802401F
:1027E0000024F400043802402DE9F84F0446DFF8D5
:1027F0001C842078A8F1040710F0010FA7F104054C
:1028000060D0D8F8000000F00C00042809D0D8F8F7
:10281000000000F00C0008280DD1386810F4800F7B
:1028200009D0286810F4003F4CD06068002849D1D6
:102830000120BDE8F88F6068B0F5803F14D0B0F596
:10284000A02F16D0286820F480302860286820F453
:1028500080202860606810B3FFF78EFD0646286868
:1028600010F4003F0ED02DE0286840F4803028603E
:10287000F0E7286840F480202860286840F4803021
:102880002860E7E7FFF778FD801B642802D9032062
:10289000BDE8F88F286810F4003FF3D012E0FFF78E
:1028A0006BFD0646286810F4003F0BD0FFF764FD6F
:1028B000801B642802D90320BDE8F88F286810F433
:1028C000003FF3D12078DFF8489310F0020F4FF06B
:1028D000000663D0D8F800004FF0F80B10F00C0F92
:1028E00016D0D8F8000000F00C00082803D1386892
:1028F00010F4800F0CD0E068C8B30120C9F80000C4
:10290000FFF73AFD8246286810F0020F16D022E049
:10291000286810F0020F05D0E068012802D00120DD
:10292000BDE8F88F28689BFAABF22169B2FA82F20F
:1029300020F0F8009140084328602FE0FFF71CFDCD
:10294000A0EB0A00022802D90320BDE8F88F28680E
:1029500010F0020FF2D028689BFAABF22169B2FAAC
:1029600082F220F0F80091400843286016E0FFE76B
:10297000C9F80060FFF700FD8246286810F0020FDA
:102980000CD0FFF7F9FCA0EB0A00022802D90320C3
:10299000BDE8F88F286810F0020FF2D1207810F00F
:1029A000080F34D09B48DFF870B26169C1B10121D2
:1029B0000160FFF7E1FC8246DBF8000010F0020F37
:1029C00025D1FFF7D9FCA0EB0A00022802D9032089
:1029D000BDE8F88FDBF8000010F0020FF1D016E030
:1029E0000660FFF7C9FC8246DBF8000010F0020F1A
:1029F0000DD0FFF7C1FCA0EB0A00022802D903208A
:102A0000BDE8F88FDBF8000010F0020FF1D120785C
:102A100010F0040F43D08148016841F080510160FB
:102A2000006800F080500090DFF8F4B1DBF800009F
:102A300040F48070CBF80000FFF79EFC8246DBF884
:102A4000000010F4807F0DD1FFF796FCA0EB0A0088
:102A5000022802D90320BDE8F88FDBF8000010F44B
:102A6000807FF1D0A068DFF8BCB1012818D005281C
:102A70001DD0DBF8000020F00100CBF80000DBF8EF
:102A8000000020F00400CBF80000A06868B3FFF756
:102A900073FC8246DBF8000010F0020F14D03CE01B
:102AA000DBF8000040F00100CBF80000EDE7DBF8B8
:102AB000000040F00400CBF80000DBF8000040F01C
:102AC0000100CBF80000E0E7FFF756FCA0EB0A019D
:102AD00041F28830814202D90320BDE8F88FDBF84B
:102AE000000010F0020FEFD017E0FFF745FC824620
:102AF000DBF8000010F0020F0FD0FFF73DFCA0EB59
:102B00000A0141F28830814202D90320BDE8F88FE2
:102B1000DBF8000010F0020FEFD1A069F0B3D8F895
:102B2000001001F00C0108296CD0022810D0C9F85F
:102B30006060FFF721FC0446286810F0007F5ED03B
:102B4000FFF71AFC001B022855D90320BDE8F88FB7
:102B5000C9F86060FFF710FC0646286810F0007F97
:102B60000BD0FFF709FC801B022802D90320BDE827
:102B7000F88F286810F0007FF3D1216AE0694FF0E8
:102B8000FF3340EA010247F6C07191FAA1F1606A91
:102B9000B1FA81F100FA01F1A06A00E02FE003EB45
:102BA00050004FF4403393FAA3F3B3FA83F3984001
:102BB000084310434FF0706292FAA2F2E16AB2FA4F
:102BC00082F29140084338600120C9F86000FFF7A5
:102BD000D3FB0446286810F0007F10D1FFF7CCFB30
:102BE000001B022802D90320BDE8F88F286810F0E6
:102BF000007FF3D003E0286810F0007FA0D1002010
:102C0000BDE8F88F0120BDE8F88F000008380240C9
:102C100000004742800E474274380240403802406C
:102C200000700040703802404FF0E021042804D0CA
:102C3000086920F0040008617047086940F004004A
:102C40000861704770470000401EB0F1807F01D3DB
:102C5000012070474FF0E0214861044AF0201070D5
:102C600000208861072008610020704723ED00E004
:102C700010B5FFF7E7FF10BD7047704710B490F82C
:102C80003820012A2AD0012380F83830022280F827
:102C900039200268D2F804C02CF0700CC2F804C0CD
:102CA0000268D2F804C00C684CEA040CC2F804C0F4
:102CB0000268D2F808C02CF0800CC2F808C0026884
:102CC000D2F808C049684CEA0101916080F83930B7
:102CD000002180F8381010BC0020704710BC022082
:102CE000704710B50446002C03D094F8390010B199
:102CF00007E0012010BD002084F83800204600F0D5
:102D00000DF8022084F83900211D206801F06AF8CE
:102D1000012084F83900002010BD000008B50068CB
:102D2000A0F18041B1F5406112D10A48016841F03B
:102D300008010160006800F00800009000221146C0
:102D40003220FFF795FBBDE808403220FFF784BB37
:102D500008BD00004038024070B5044694F83800C1
:102D6000012818D0012584F83850022084F8390051
:102D70002068826822F0770222F47F42826008682D
:102D800050283AD00EDC20285FD006DC002852D034
:102D9000102863D154E0022070BD30285AD040285A
:102DA0005CD13EE0602832D070280CD0B0F5805F56
:102DB00003D0B0F5005F51D113E02068816821F0A5
:102DC000070181604AE0CB684A688968206801F0A1
:102DD00070F82068816821F0770141F07701816007
:102DE0003CE0CB684A688968206801F062F8206896
:102DF000816841F48041816030E0CA684968206898
:102E000001F032F95021206801F05EF826E0CA682E
:102E10004968206801F03BF96021206801F054F80E
:102E20001CE0CA684968206801F01EF9402120684A
:102E300001F04AF812E00021206801F045F80DE0A9
:102E40001021206801F040F808E02021206801F0FE
:102E50003BF803E03021206801F036F884F839505F
:102E6000002084F8380070BD704770B504462068B3
:102E700001694FF0000511F0020F17D0C16811F081
:102E8000020F13D0E91E01610120207620688069BD
:102E900010F0030F03D02046FFF7E6FF05E02046C1
:102EA00000F0C8F8204600F02DF925762068016969
:102EB00011F0040F18D0C16811F0040F14D06FF096
:102EC00004010161022020762068806910F4407FAF
:102ED00003D02046FFF7C8FF05E0204600F0AAF81F
:102EE000204600F00FF925762068016911F0080FDF
:102EF00018D0C16811F0080F14D06FF008010161FB
:102F0000042020762068C06910F0030F03D020460B
:102F1000FFF7AAFF05E0204600F08CF8204600F0FD
:102F2000F1F825762068016911F0100F18D0C168FA
:102F300011F0100F14D06FF01001016108202076FD
:102F40002068C06910F4407F03D02046FFF78CFF53
:102F500005E0204600F06EF8204600F0D3F8257614
:102F60002068016911F0010F09D0C16811F0010F4B
:102F700005D06FF001010161204600F0C4F820681F
:102F8000016911F0800F09D0C16811F0800F05D0E0
:102F90006FF0800101612046FFF76EFE2068016935
:102FA00011F0400F09D0C16811F0400F05D06FF04B
:102FB00040010161204600F0A7F82068016911F086
:102FC000200F0BD0C16811F0200F07D06FF0200147
:102FD00001612046BDE87040FFF74FBE70BD70B57F
:102FE000044694F8380001280DD0012584F83850A3
:102FF000022084F8390042B1042A0AD0082A0CD0F1
:103000000C2A11D10DE0022070BD206800F064FF91
:103010000AE0206800F092FF06E0206800F0C4FF9C
:1030200002E0206800F0F6FF84F83950002084F8B0
:10303000380070BD07490868C26812F0020F08D056
:103040006FF0020202610868406A0349086001F0FB
:103050000FB97047943700202C00002010B50446AB
:10306000002C03D094F8390010B107E0012010BD06
:10307000002084F83800204600F00CF8022084F884
:103080003900211D206800F0ADFE012084F83900D0
:10309000002010BD704710B504460029226806D0F4
:1030A000042909D008290CD00C2913D10EE0D068CE
:1030B00040F00200D0600DE0D06840F00400D06025
:1030C00008E0D06840F00800D06003E0D06840F02D
:1030D0001000D0600122206800F0DEFE2068A0F120
:1030E0008041B1F5803102D0B1F5806103D1416CEE
:1030F00041F4004141642068016841F00101016030
:10310000002010BD70477047704770B50446002C12
:1031100004D094F83900002510B106E0012070BDFC
:1031200084F83850204600F023F8242084F8390031
:103130002068C16821F40051C160204601F0F2F816
:103140002068016921F4904101612068416921F002
:103150002A0141612068C16841F40051C160E56302
:10316000202084F8390084F83A00002070BD000067
:1031700010B586B00068A0F18041B1F588311DD14D
:103180000F48016841F010010160006800F0100074
:103190000090402001900220029001200390032023
:1031A000049007200590074C01A92046FEF7DCFF9C
:1031B0008021019101A92046FEF7D6FF06B010BD7F
:1031C00044380240000402402DE9F84304460D460D
:1031D00091461E4694F83900202802D00220BDE80E
:1031E000F8834DB3B9F1000F26D094F838000128C8
:1031F00025D0012084F838000027E763212084F8D7
:103200003900FFF7B9F88046A4F82490A4F8269076
:10321000E08CA0B3E08C401EE084A068B0F5805F35
:1032200010D04346002280212046009601F01CFA6F
:10323000F0B10320BDE8F8830120BDE8F883022047
:10324000BDE8F8834346002280212046009601F025
:103250000BFA10B10320BDE8F88328882168C0F379
:1032600008004860206908B16D1C05E0AD1C03E052
:10327000216815F8010B4860E08C0028CAD143464C
:10328000002240212046009601F0EEF910B1032003
:10329000BDE8F883202084F8390084F838700020D5
:1032A000BDE8F883FEE7000010B50C480CA14068AB
:1032B000FCF7CCFF002810D00B4B00224FF400513C
:1032C0000A4800F08AFA012108480DF03DFFBDE8E8
:1032D0001040002105480EF069B810BD2000002004
:1032E0006E6F6E65000000008935000890010020B7
:1032F00030B583B0044694F82603012827D0002077
:1033000023A10091019043F60C53B5222AA134A0C9
:1033100001F00EFA002584F8265338A0009043F6F9
:103320000353B72224A101952DA001F001FAB4F9AD
:103330002E03FDF7D3FAA4F82E03206A00780028A4
:1033400015D0D4F82803C4F8B80203B030BD00206B
:1033500030A10091019043F60B53AF2216A120A09B
:1033600001F0E6F9022084F8260303B030BDC4F86A
:103370001853012084F81403D4F83023002AF4D021
:1033800094F8151303B02046BDE830401047000004
:103390004C5353207377697463682064656C61795A
:1033A000207365636F6E6420706572696F64206559
:1033B00078706972656400002E2E5C4D6964646CDF
:1033C0006577617265735C63616E66657374697657
:1033D000616C5C7372635C6C73732E63000000003D
:1033E000257328256429203A203078255820257314
:1033F000203078256C580D0A0000000053746F705F
:103400004C53535F5344454C41595F54494D4552C9
:10341000000000004C535320737769746368206484
:10342000656C617920666972737420706572696F6A
:1034300064206578706972656400000030B58BB0F7
:1034400017481649016000F14401016300F1600171
:1034500041630321416000248460C4604FF4A021D3
:1034600001614FF4C001416184610125C5610562BC
:1034700044628462C462FDF7CDFE0594069407950C
:103480000094019402940394049408950E200990EA
:1034900069460348FDF732FD0BB030BD00640040C3
:1034A0001037002082B000210C48026842F002026E
:1034B0000260006800F0020001900A48084A0260B9
:1034C0004FF4E13242608160C16001610C224261CF
:1034D0008161C16102B0FFF718BE000030380240C0
:1034E00000100140D0360020FEE7704700B587B0DD
:1034F00006F002FD06F0F8FD00200690059004900D
:103500001149124A01920291009004AB05AA06A942
:103510000F4806F01BFE0E4806F07AFE0C4890F8A5
:10352000330010F0040F06D00AA001F001F908489A
:1035300006F0B9FE02E0064806F070FE09490448AC
:1035400006F0A6FE07B000BD5581000851820008B4
:10355000B0050020B3C9B9A6C1ACBDD3CDF8BFA892
:103560000A0000002D83000810B50EF0CFF80020EF
:1035700010BD10B50446204605F030FA204605F08F
:10358000A3F9002010BD000010B50348017803A086
:1035900001F0CEF8002010BD440000204F6E4D61B8
:1035A000737465724D6170315570646174653A254C
:1035B000640A0000D0F8E012097800290ED190F8D2
:1035C000DD22002A0AD90022D0F8E43243F8212073
:1035D000491CC9B290F8DD328B42F5D80020704703
:1035E00030B4D0F808C001EBC10202244FF0FF3321
:1035F00004EB42042CF804300023D0F808C0062461
:1036000004EB42022CF8023030BCC9B20DF0AAB86B
:1036100030B4D0F808C001EBC10204244FF0FF33EE
:1036200004EB42042CF80430836813F812C02CF029
:10363000010C03F812C030BCC9B20DF093B8000001
:103640002DE9F04182B080464FF4C055D8F81400FF
:103650000489D8F818000689002C15D0B44213D874
:103660000D4F6B4601AA294640460DF071F80198AE
:1036700020B9009A12B19760D7605761681C85B273
:10368000601C84B2B442ECD902B04046BDE8F041BF
:10369000002101F0FFBA0000B34000082DE9F05FFF
:1036A0000446002760690589A069B0F80880002DEC
:1036B0002AD0454528D8B9464FF0020AA06807EB42
:1036C000C7060AEB460B30F90B00FDF707F9A168B6
:1036D00021F80B00A168042000EB460B31F90B0028
:1036E000FDF7FCF8A16821F80B00A06800F816901F
:1036F000A168062000EB460021F80090781CC7B2B4
:10370000681C85B24545D9D9BDE8F09F70470000D7
:1037100010B586B00446D4F80C020088002822D0E8
:103720002068007800F5E060ADF80C0001208DF80D
:103730000F0000208DF80E0094F8E0018DF81000C5
:1037400094F8E0010CA10091019043F23013C522DE
:103750000FA11AA000F0ECFF03A9D4F8B80202F000
:10376000ADFD06B010BDB4F91002FDF7B7F8A4F82E
:10377000100206B010BD000050726F647563696E70
:1037800067206865617274626561743A20000000A8
:103790002E2E5C4D6964646C6577617265735C6341
:1037A000616E666573746976616C5C7372635C6C80
:1037B0006966656772642E63000000002573282522
:1037C0006429203A20307825582025732030782528
:1037D0006C580D0A00000000704730B583B01446E5
:1037E0001D4601AB02AA0CF0B3FF029931B9019951
:1037F00021B10079A04201D941F82450029803B0C8
:1038000030BD00002DE9F04182B005460E466869E2
:103810004088002864D006EB460101EBC60105EBA9
:10382000C10494F828100844A9694988884257D8E7
:10383000696851F83000C06A077800202AA1009119
:10384000019041F60123962231A13BA000F070FFC8
:1038500040A0009042F6022397222DA1019736A0A6
:1038600000F066FF208E40A10091019042F60223F5
:10387000982227A130A000F05BFF94F832003FA10E
:103880000091019042F60223992221A12AA000F082
:103890004FFF4FF0FF30A4F87A00852084F82A000B
:1038A00094F83200DFF8E8800090CDF80480238E91
:1038B00094F8282094F8291028460DF075FAC4F8D9
:1038C0002C80E26F12B1394628469047E06A4045A5
:1038D00006D102B0F1B22846BDE8F0410CF0E0BEDE
:1038E00002B0BDE8F081000053444F2074696D655B
:1038F0006F75742E2053444F20726573706F6E7312
:1039000065206E6F742072656365697665642E004C
:103910002E2E5C4D6964646C6577617265735C63BF
:10392000616E666573746976616C5C7372635C73F7
:10393000646F2E6300000000257328256429203A57
:103940002030782558202573203078256C580D0AB2
:1039500000000000736572766572206E6F646520EA
:103960006964203A20000000202020202020202010
:1039700020696E646578203A200000002020202015
:103980002020737562496E646578203A200000003B
:103990000000040530B585B005460C4622A0009015
:1039A00043F60823D22227A1019430A000F0C0FEE4
:1039B00004EB440000EBC40005EBC00CDCF8340061
:1039C00018B9DCF83800CCF83400DCF83410049175
:1039D000012004AA20290CD90190029000929CF8A1
:1039E0003220BCF830102846DCF85C3001F04CFB8B
:1039F0000BE00190029000920CF13C039CF8322005
:103A0000BCF83010284601F03FFB00280AD11EA068
:103A1000009043F60823EA220AA1019413A000F0C3
:103A200087FE002005B030BD456E74657220696E5A
:103A30002053444F6C696E65546F4F626A646963CA
:103A4000742000002E2E5C4D6964646C6577617291
:103A500065735C63616E666573746976616C5C73D3
:103A600072635C73646F2E63000000002573282569
:103A70006429203A20307825582025732030782575
:103A80006C580D0A0000000065786974206F66208C
:103A900053444F6C696E65546F4F626A6469637416
:103AA00020000000F0B583B015461E4601EB410230
:103AB00002EBC10100EBC104A76B04F13C017A19D0
:103AC000202A10D9E06DF0B1216E8A420AD901F5A1
:103AD00080610CF0A3FD002834D0E065206E00F575
:103AE00080602066E16D0020002D06D93B18325C15
:103AF000CA54401CC0B2A842F8D3A06B2844A063AB
:103B000003B00020F0BD4FF4806000F063FEE0657C
:103B10004FF48061216628B104F13C013A46FCF77C
:103B200071FBDFE74FF480600FA10091019041F637
:103B300015234FF4BC7217A120A000F0F9FD03B0CB
:103B4000FF20F0BD206E00F5806023A10091019060
:103B500041F615234FF4C1720EA118A000F0E8FD44
:103B600003B0FF20F0BD000053444F20616C6C6F28
:103B7000636174696E672064796E616D6963206248
:103B80007566666572206661696C65642C20736970
:103B90007A6500002E2E5C4D6964646C65776172F5
:103BA00065735C63616E666573746976616C5C7382
:103BB00072635C73646F2E63000000002573282518
:103BC0006429203A20307825582025732030782524
:103BD0006C580D0A0000000053444F207265616C60
:103BE0006C6F636174696E672064796E616D69637F
:103BF00020627566666572206661696C65642C205A
:103C000073697A6500000000704700002DE9FF5FCE
:103C10008246DDF8388016461F460025204CDFF826
:103C20008490B9F90000401C05E00EB1217859B12B
:103C3000691C0DB21834854201DC082DF5DB04B097
:103C40004FF0FF30BDE8F09F854201D1A9F8000098
:103C500004F0EEFC834638464FF6FF71884200D3ED
:103C60000846D9F80410594509D9A1EB0B01814246
:103C700005D90BEB0001C9F804100DF06FFCA6602C
:103C8000C4F804A00198E06007EB0B002061C4F8C1
:103C900014800120207004B02846BDE8F09F000089
:103CA000DC3700203000002008B5084908600021FA
:103CB00002460B4608460091FFF7A8FFFCF7D2FF2B
:103CC000BDE8084000210248FFF7E5B91C000020CC
:103CD00094370020704710B5FEF754FBBDE8104044
:103CE000FEF7C6BF30B593B000252348016841F008
:103CF00080510160006800F0805000901F4801680A
:103D000041F480410160006800F48040009001208F
:103D100006900004079002240C9480010D90082066
:103D20000E904FF4A8700F9010940720119006A8E1
:103D3000FEF75AFD0F200190029403954FF4A05016
:103D40000490E0020590052101A8FEF7D7FBFEF7DD
:103D5000CDFCFEF7D1FC4FF47A71B0FBF1F0FEF729
:103D600073FF0420FEF760FF00221146501EFEF78D
:103D70007FFB13B030BD00004038024000700040AF
:103D80000F48016841F4700101600E48016841F07C
:103D9000010101600C4A00211160026822F4102226
:103DA00022F080720260031D084A1A60026822F441
:103DB0008022026006480160064958060860704784
:103DC00088ED00E00038024008380240103000243E
:103DD0000C38024008ED00E00148FFF746B800004B
:103DE00094370020F0B40268264BDFF89CC0274DC2
:103DF000274E284C98420AD0B0F1804F07D060453A
:103E000005D0A84203D0B04201D0A04203D122F095
:103E100070024F683A4398421ED0B0F1804F1BD0D9
:103E2000604519D0A84217D0B04215D0A04213D097
:103E3000A0F1804CBCF5A03C0ED0BCF5806C0BD042
:103E4000BCF5806C08D01CF5983C05D0BCF5806CA6
:103E500002D0BCF5806C05D122F44072D1F80CC0C0
:103E60004CEA020202608A68C2620A688262984270
:103E700001D0A04201D10969016301214161F0BC77
:103E800070470000000001400004004000080040AE
:103E9000000C00400004014001238B40D0F820C0FA
:103EA0002CEA03030362036A02FA01F11943016277
:103EB0007047D0F808C02CF47F4C42EA032211432B
:103EC00041EA0C0181607047826822F07002114360
:103ED00041F007018160704710B4026A22F00102CC
:103EE0000262036A4268D0F818C02CF0700C2CF003
:103EF000030C0C6844EA0C0C23F002038C68234387
:103F0000A0F18044B4F5803402D0B4F580640DD1C2
:103F100023F00803CC68234323F0040322F48072C7
:103F200022F400724C6922438C6922434260C0F83B
:103F300018C049684163036210BC704710B4026A3C
:103F400022F010020262036A4268D0F818C02CF412
:103F5000E04C2CF4407C0C684CEA042C23F0200349
:103F60008C6843EA0413A0F18044B4F5803402D095
:103F7000B4F5806410D123F08003CC6843EA0413C5
:103F800023F0400322F4806222F400624C6942EA8A
:103F900084028C6942EA84024260C0F818C0496811
:103FA0008163036210BC704710B4026A22F480720D
:103FB0000262036A4268D0F81CC02CF0700C2CF02E
:103FC000030C0C6844EA0C0C23F400738C6843EA7D
:103FD0000423A0F18044B4F5803402D0B4F58064A9
:103FE00010D123F40063CC6843EA042323F48063F4
:103FF00022F4805222F400524C6942EA04128C6985
:1040000042EA04124260C0F81CC04968C1630362FE
:1040100010BC704710B4026A22F480520262D0F8D9
:1040200020C04268C36923F4E04323F440730C6862
:1040300043EA04232CF4005C8C684CEA043CA0F1B5
:104040008044B4F5803402D0B4F5806404D122F405
:1040500080424C6942EA84124260C361496801644B
:10406000C0F820C010BC7047036AD0F820C02CF004
:10407000010CC0F820C0D0F818C02CF0F00C4CEAAD
:10408000021223F00A031943826101627047036A36
:1040900023F010030362D0F818C0036A2CF4704CAC
:1040A0004CEA023223F0A00343EA0111826101626B
:1040B00070472DE9F041044694F8E601002805D048
:1040C000022A06D0032A04D0052A02D00020BDE827
:1040D000F0816269A088127A00EBC200081AC0F36E
:1040E000C707A16807EBC705022000EB4506885FFC
:1040F000FCF7F4FBA1688853A168042000EB450697
:10410000885FFCF7EBFBA1688853A168002001F8E9
:10411000150039462046FFF763FA0020BDE8F0811C
:104120007047000030B587B040F28110069040F231
:1041300081200590042004900DA000F0F9FA0024DD
:1041400004AD019406AB01224FF4A0510F48009535
:10415000029400F099FF019405AB012241F2014164
:104160000A480095029400F08FFF07B030BD0000B0
:10417000546573744D61737465725F696E697469B7
:10418000616C69736174696F6E0A000090010020B0
:104190007047FCF735BA00002DE9F04186B02D4C90
:1041A0002D49A06881FB0021CA10A2EBE1714942B0
:1041B00001EB0111C14209D141F2024127480CF043
:1041C000DBFB41F2034125480CF0D6FB244EA068EE
:1041D000244F86FB00210A11A2EBE1716FF0180257
:1041E000514310EB41004FF000054FF001080FD193
:1041F000FF20059005A802230290019541F60202D6
:104200001946CDF8008003970495144810F09FFDDF
:10421000A06886FB00210A11A2EBE1716FF0180281
:10422000514300EB410019280ED1059505A8022342
:104230000290019541F602021946CDF800800397DD
:104240000495064810F083FDA068401CA06006B0ED
:10425000BDE8F0813800002079787878900100205E
:104260001F85EB51890500087047704770477047FC
:104270002DE9F0414FF6FF7404F0DAF90346274EBA
:10428000706800EB030C00222549B6F900000028F5
:1042900025DB02250327087810F0010F18D00869E4
:1042A00060450FD8486958B1B3FBF0F800FB1838E7
:1042B000A0EB080008610F70A04209D2044607E095
:1042C0000D7005E0A0EB0C000861A04200D204468E
:1042D000501C02B21831B6F900008242DBDD746076
:1042E00020460DF03BF900250D4CB6F900000028E2
:1042F00012DB207810F0020F07D020F002002070AF
:10430000A26812B1E16860689047681C05B2183471
:10431000B6F900008542ECDDBDE8F08130000020F8
:10432000DC3700202DE9F04104462068016921F4C2
:104330004051E268114301612068C16821F40371B2
:1043400021F414412369A268D4F81CC01A4363699C
:1043500043EA0C031A431143C1602068416921F408
:104360004071A26911434161E069BC4ABC49BD4D3D
:104370003226B0F5004F5ED02068884202D09042CD
:1043800040F01281FEF7D4F900EBC00101EB001000
:1043900061688900B0FBF1F7FEF7CAF900EBC001D4
:1043A00001EB001061688900B0FBF1F0A5FB001083
:1043B00040096FF01801484307EB800006EB00103E
:1043C000A5FB0010400900F0F007FEF7B1F900EB83
:1043D000C00101EB001061688900B0FBF1F0A5FBA2
:1043E0000010400907EB0017FEF7A2F900EBC0012F
:1043F00001EB001061688900B0FBF1F8FEF798F955
:1044000000EBC00101EB001061688900B0FBF1F026
:10441000A5FB001040096FF01801484308EB80002D
:1044200006EB0010A5FB00102168C0F343103844D0
:104430008860BDE8F0812068884201D0904259D15F
:10444000FEF776F900EBC00101EB0010616849004E
:10445000B0FBF1F0A5FB001040090701FEF768F979
:1044600000EBC00101EB001061684900B0FBF1F8FE
:10447000FEF75EF900EBC00101EB00106168490036
:10448000B0FBF1F0A5FB001040096FF018014843A4
:1044900008EB800006EBC000A5FB0010400900F00F
:1044A000F80007EB4007FEF743F900EBC00101EB12
:1044B000001061684900B0FBF1F8FEF739F900EB34
:1044C000C00101EB001061684900B0FBF1F0A5FBF1
:1044D000001040096FF01801484308EB800006EB1C
:1044E000C000A5FB00102168C0F34210384488606A
:1044F000BDE8F081FEF706F900EBC00101EB00100A
:1045000061684900B0FBF1F0A5FB0010400907010C
:10451000FEF7F8F800EBC00101EB001061684900FC
:10452000B0FBF1F8FEF7EEF800EBC00101EB001074
:1045300061684900B0FBF1F0A5FB001040096FF085
:104540001801484308EB800006EBC000A5FB0010F3
:10455000400900F0F80007EB4007FEF7D3F800EB46
:10456000C00101EB001061684900B0FBF1F8FEF7F3
:10457000C9F800EBC00101EB001061684900B0FB15
:10458000F1F0A5FB001040096FF01801484308EB5B
:10459000800006EBC000A5FB00102168C0F34210AC
:1045A00038448860BDE8F081FEF7ACF800EBC0014C
:1045B00001EB001061688900B0FBF1F7FEF7A2F88B
:1045C00000EBC00101EB001061688900B0FBF1F065
:1045D000A5FB001040096FF01801484307EB80006D
:1045E00006EB0010A5FB0010400900F0F007FEF7F5
:1045F00089F800EBC00101EB001061688900B0FB95
:10460000F1F0A5FB0010400907EB0017FEF77AF860
:1046100000EBC00101EB001061688900B0FBF1F80C
:10462000FEF770F800EBC00101EB00106168890033
:10463000B0FBF1F0A5FB001040096FF018014843F2
:1046400008EB800006EB0010A5FB00102168C0F30A
:10465000431038448860BDE8F08100000014014038
:10466000001001401F85EB512DE9F0410446069DE5
:10467000884617461E462068006838EA000020D0A9
:104680000020B84227D1B5F1FF3F1CD025B1FDF77E
:1046900073FE801BA84216D92068C16821F4D0712E
:1046A000C1602068416921F001014161202084F846
:1046B000390084F83A00002084F838000320BDE86F
:1046C000F0810120DDE72068006838EA000005D0AD
:1046D0000020B842D7D00020BDE8F0810120F8E7E3
:1046E000FEE7000090F8330010F0010F044802D0FC
:1046F0000121017070470521017002A000F018B877
:1047000000000020546865206E6574776F726B201E
:104710006361626C65206973206E6F7420636F6ED5
:104720006E6563746564200A000000007047000035
:104730000FB4054B10B503A9044A029800F04AF9DA
:1047400010BC5DF814FB000015860008A4050020CD
:104750000FB4084B10B504A902AA039800F03AF967
:10476000044602A9002000F0A3FE204610BC5DF81C
:1047700014FB0000B154000830B528B1144C031FDD
:10478000002021680A4605E0084630BD9A4203D859
:1047900010465268002AF9D1002800D041680BD099
:1047A0000468A3EB0005A54204D11B681C44034622
:1047B000046002E0436000E023603AB11C68D51A4F
:1047C000A54203D115682C441C6052685A6030BD64
:1047D000A80500202DE9F04782460F4C10480D4EE9
:1047E0000E4F001B4FF0000820F007054FF00109A5
:1047F00000221146504604F0D9FA002802D1306850
:1048000010B10020BDE8F0873C60C4E90058C6F84C
:104810000090EDE7AC050020A47D0020A805002055
:10482000A07F002002E008C8121F08C1002AFAD1A8
:1048300070477047002001E001C1121F002AFBD120
:10484000704700002DE9F04385B08846DDF83890C8
:104850000D9E0C9D17461C46D0F8BC3203AA04A935
:1048600040469847049919B105B00846BDE8F08361
:104870000179B9420BD8394C00231A4639464046D3
:10488000009401F059F805B02046BDE8F08307EB2D
:104890004701B9F1000F1BD0026812F8212012F075
:1048A000010F15D02EA00192009042F630336C22F9
:1048B0002FA13AA0FFF73CFF3F4C00231A46394690
:1048C0004046009401F038F805B02046BDE8F0837A
:1048D0007CB10422D0F800C002EB8102D5F8008040
:1048E0005CF80230434509D92B6005B03348BDE878
:1048F000F08305B04FF00060BDE8F083012303EBC7
:1049000081011CF80130337000688658082107EBDC
:10491000470201EB8201092B06D04158324620465E
:10492000FBF770FC2E6014E040588446296801B9FA
:1049300031460A1802E004F8011B401C017809B155
:104940009042F8D3A0EB0C012960B14201D20021C2
:10495000017005B00020BDE8F083000011000906D9
:104960004163636573732054797065203A200000B9
:104970002E2E5C4D6964646C6577617265735C634F
:10498000616E666573746976616C5C7372635C6F8B
:10499000626A61636365732E6300000025732825D6
:1049A0006429203A20307825582025732030782536
:1049B0006C580D0A00000000010001060500040506
:1049C000704770477047704770477047704770472F
:1049D000704700002DE9FF4F8DB09B460F460446FF
:1049E000002606E025280BD05A460F999047641CF4
:1049F000761C20780028F5D111B03046BDE8F08F44
:104A00000025A8460122984900E0054314F8013F1B
:104A1000203B02FA03F00842F7D120782E2817D164
:104A200014F8010F45F004052A280ED06FF02F026C
:104A30002078A0F1300109290AD808EB880102EB9F
:104A4000410100EB0108641CF2E757F8048B641C79
:104A500020786C280DD004DC4C2812D06A2811D1A3
:104A600004E074280DD07A280CD10AE045F4001532
:104A700007E0617845F48015814202D1641C05F598
:104A80008015641C2278692A45D008DC002AB3D03E
:104A9000582A69D0632A10D0642A08D13BE0702AD2
:104AA00067D0732A13D0752A5CD0782A5CD0104660
:104AB0005A460F999047761CD3E017F8040B8DF8EF
:104AC000000000208DF80100E946012003E057F8BE
:104AD000049B4FF0FF3069074FF0000501D40AE056
:104AE0006D1C45450DDA8542FADB19F805100029E1
:104AF000F6D106E06D1C8542FCDB19F80510002993
:104B0000F8D12E4404E019F8010B5A460F9990474A
:104B10006D1EF8D2A5E00A200021CDE90801C5F3F9
:104B2000025002280DD001CFC117031E71F10003FE
:104B30000DDA4FF0000CD0EB0C006CEB01012D23D3
:104B400008E0FF1D27F00707F7E80201EDE72B0556
:104B500004D52B238DF8283001233BE0EB0739D017
:104B60002023F7E70A2000E010200021CDE908010A
:104B700007E01020002145F00405CDE908014FF0C1
:104B80000808C5F3025002280FD001CF00214FF0D2
:104B9000000A2B071FD5702A0DD0DDE908C38CF061
:104BA000100C5CEA030C0CD015E0FF1D27F0070782
:104BB000F7E80201EBE740228DF828204FF0010AC8
:104BC0000BE050EA010306D030238DF828308DF831
:104BD000292002239A46582A04D024A20DF1200944
:104BE0000B9209E026A2F9E7DDE90823FBF749FB70
:104BF0000B9B9B5C09F8013D50EA0102F4D1ADEB3F
:104C0000090020300890680701D44FF00108089986
:104C1000884502DDA8EB010000E000208046002569
:104C200006E00AA85A46405D0F9990476D1C761C15
:104C30005545F6DB04E030205A460F999047761C24
:104C4000B8F10001A8F10108F5DC05E019F8010B45
:104C50005A460F999047761C0899481E08900029DB
:104C6000F4DC641CC5E60000092801003031323351
:104C70003435363738396162636465660000000098
:104C80003031323334353637383941424344454682
:104C9000000000002DE9F04F85B00646884600244C
:104CA000032570690789B069B0F8089096F9E601A4
:104CB00099A10091019043F6601340F29122A0A1C6
:104CC000A9A0FFF735FD96F8E601002830D0ADA089
:104CD000009043F6601340F2972299A10197A2A099
:104CE000FFF726FD002F00F01281A246CDF808A0A4
:104CF000CDF80CA0CDF810A04F4500F208814FF080
:104D0000060B032D18D0052D00F0E7800B2D00F0C9
:104D1000EB80A1A0009041F6721340F2023288A10C
:104D2000019591A0FFF704FD05B0FF20BDE8F08FCD
:104D300005B00020BDE8F08F706850F83700416979
:104D4000096811F0004F0FD004F5C0509BA10091ED
:104D5000019043F660134FF42A7279A182A0FFF705
:104D6000E7FC0B2500F0D0B8056A04F5C05098A107
:104D70000091019043F662134FF42C7270A17AA057
:104D8000FFF7D6FC2B7840F2B1226DA196A0FFF779
:104D9000CFFCB8F1000F36D02878002833D0F028A7
:104DA00031D8B16804EBC40011F81020521CD2B203
:104DB00001F8102029788A4225D1B16801F810A0A5
:104DC000287892A10091019043F6641340F2BD222D
:104DD0005BA165A0FFF7ACFC02AA2146304600F0BB
:104DE00029FF68B192A0009041F6061340F2C62256
:104DF00053A101945CA0FFF79BFC0B2500F084B845
:104E0000052500F081B8B8F1000F02D02878FC2801
:104E100009D0B8F1000F02D0287800284CD0B8F1A2
:104E2000000F27D033E004EBC405B0680BEB45015D
:104E300042182146304600F0FDFE90B17CA0009063
:104E400041F6661340F2D3223DA1019446A0FFF73C
:104E50006FFCB06810F8151021F0010100F8151072
:104E600006E0B06810F8151041F0010100F81510C7
:104E70000B2549E02878FF2801D0FE2807D1B0682B
:104E800004EBC40110F8110010F0010F14D02878C1
:104E90006F490091019043F26C0340F2EE2228A189
:104EA00031A0FFF745FC2B7840F2F12224A14EA05F
:104EB000FFF73EFC0B2527E066A0009041F6661345
:104EC0004FF43A721EA1019427A0FFF731FC21464E
:104ED00030460BF047FC0B2516E002AA214630466F
:104EE0000BF0F0FD0B250FE0601CC4B2781C87B2FC
:104EF00060A0009043F6701340F2FD2210A10194CF
:104F000019A0FFF715FC03254F457FF6FAAE05B053
:104F10000020BDE8F08F0000642D3E43757272657D
:104F20006E74436F6D6D756E69636174696F6E53F6
:104F3000746174652E637350444F206973200000C0
:104F40002E2E5C4D6964646C6577617265735C6379
:104F5000616E666573746976616C5C7372635C70B4
:104F6000646F2E6300000000257328256429203A11
:104F70002030782558202573203078256C580D0A6C
:104F8000000000006F66667365744F626A6469634F
:104F90007420697320000000556E6B6E6F776E2071
:104FA000737461746520686173206265656E207238
:104FB000656163686564203A202564004E6F742043
:104FC000612076616C69642050444F20000000002D
:104FD00052656164696E672050444F206174206996
:104FE0006E646578203A2000257328256429207096
:104FF0005472616E736D697373696F6E5479706505
:10500000206973202564200D0A00000020205044F0
:105010004F206973206F6E2053594E4348524F2ED4
:10502000205472616E732074797065203A200000FC
:1050300020436F756C646E2774206275696C642000
:105040005450444F206E756D626572203A20000006
:10505000484F01082073656E644F6E6550444F657C
:1050600076656E742070646F4E756D2069733A209A
:10507000000000006E6578742070646F20696E64B3
:105080006578203A200000002DE9FF4F85B0824668
:10509000139D129C9046DAF8BC3203AA04A9069824
:1050A00098470646049800280ED000209BA1009146
:1050B00001904AF6AA23BD229EA1A9A0FFF738FBC2
:1050C000049809B0BDE8F08F3079ACA1009101904F
:1050D0004AF6AA23C02297A1A1A0FFF729FBAEA000
:1050E00000904AF6AA23C12292A1CDF804809CA088
:1050F000FFF71EFB3079404516D8AB4D00950022D6
:1051000041462368069800F017FC0021A7A00191F2
:1051100000904AF6AA23C62286A191A0FFF708FBB9
:1051200009B02846BDE8F08F08EB480725B1306884
:1051300010F8270002283ED00020A3A10091019082
:105140004AF6AA23D0227BA185A0FFF7F1FA01211C
:10515000306801EB870110F80190042101EB870111
:10516000455820689EA1009101904AF6AA23D322B7
:1051700070A17BA0FFF7DCFA9DA000904AF6AA235D
:10518000D4226CA1019576A0FFF7D2FA9AA00090E4
:105190004AF6AA23D52267A1CDF8049070A0FFF7A4
:1051A000C7FA206800282AD0A84228D0B9F1090FF0
:1051B00022D000F099B893A10091019042F62533D6
:1051C000CA225CA166A0FFF7B3FA924D00950022B7
:1051D00041462368069800F0AFFB00218EA00191A4
:1051E00000904AF6AA23CC2252A15DA0FFF7A0FAB4
:1051F00009B02846BDE8F08FA84280F07580DAF843
:1052000024204846089990470490A8B100902A4667
:1052100041462368069800F08FFB002085A100918D
:1052200001904AF6AA23F22242A14DA0FFF780FA8C
:10523000049809B0BDE8F08F002085A1009101908D
:105240004AF6AA23F6223BA145A0FFF771FA0820EF
:10525000316800EB870B226851F80B000899FAF7C8
:10526000D1FFB9F1090F07D12068A84204D23268F2
:10527000002152F80B201154256000207DA10091DF
:1052800001904AF6AA2340F203122AA134A0FFF7A4
:105290004FFA0398C0B150F82830ABB142463146BE
:1052A00050469847049078B100207AA1009101906F
:1052B0004AF6AA234FF485721EA129A0FFF738FAF7
:1052C000049809B0BDE8F08F306810F8270010F09E
:1052D000040F05D0DAF8C032424650460699984786
:1052E00009B00020BDE8F08F2560002051A1009199
:1052F00001904AF6AA234FF48B720EA118A0FFF773
:1053000017FA6A4E00962A4641462368069800F02E
:1053100013FB09B03046BDE8F08F00007363616E87
:10532000496E6465784F4420697320206572726FFE
:10533000723A20002E2E5C4D6964646C6577617250
:1053400065735C63616E666573746976616C5C73CA
:1053500072635C6F626A61636365732E6300000051
:10536000257328256429203A203078255820257374
:10537000203078256C580D0A0000000070747254BB
:1053800061626C652D3E62537562436F756E742069
:105390006973203A2000000062537562696E64658B
:1053A00078206973203A2000110009064F445F4EAF
:1053B0004F5F535543485F535542494E4445582E1D
:1053C0002E2E2E2E2E0000006166746572206368FA
:1053D00065636B4163636573732E2E2E2E2E2E0034
:1053E0002A70457870656374656453697A653A001C
:1053F000737A446174613A006461746154797065D0
:105400003A0000004163636573732054797065202E
:105410003A200000020001064F445F5752495445AC
:105420005F4E4F545F414C4C4F5745442E2E2E2E0D
:105430002E2E000061636365737344696374696F42
:105440006E6172794572726F722E2E2E2E2E2E0084
:105450006166746572206163636573734469637424
:10546000696F6E6172794572726F722E2E2E2E2EBA
:105470002E0000006166746572207074725461625F
:105480006C652D3E70537562696E6465782E2E2EA4
:105490002E2E2E0043616C6C6261636B2069732059
:1054A0006572726F722E2E2E2E2E2E0010000706A1
:1054B0000A68531C0B6010707047704770470000FB
:1054C0002DE9F04F87B00546DDF844B0DDF848A07F
:1054D000DDF85490109C0E4690461F46AAA00090FE
:1054E0004FF46B5340F27D72B3A10196BCA0FFF75D
:1054F0001FF9C2A0009043F6C12340F27E72AEA114
:10550000CDF80480B6A0FFF713F9C8A0009043F6C9
:10551000C22340F27F72A8A10197B1A0FFF708F95A
:10552000CEA0009043F6C3234FF4F062A2A10194F1
:10553000ABA0FFF7FDF831462846FBF7D3FB0490FC
:105540000498FE2803D3049807B0BDE8F08F05AB9C
:1055500002222846049903F0DFF8A8B105AA022127
:10556000284603F079F800281DD0C848009041F67D
:10557000C52340F28F7290A1019699A0FFF7D8F849
:1055800007B0FF20BDE8F08FC1A0009041F6C42312
:1055900040F2897288A1019691A0FFF7C9F807B07F
:1055A000FF20BDE8F08F9DF81400C7A10091019085
:1055B00043F6E12340F293727FA189A0FFF7B8F888
:1055C000B9F1000F13D004200097019043469DF8D5
:1055D00014102846049A03F02BFB9DF8140000EBEE
:1055E000400101EBC00005EBC000846609E0022029
:1055F0000097019043469DF814102846049A03F042
:1056000017FB9DF8140000EB400101EBC00005EB17
:10561000C00044639DF8140000EB400101EBC000A2
:1056200005EBC00080F878B09DF8140000EB400155
:1056300001EBC00005EBC00000F13C01202C1FD99C
:105640002046FFF7C7F801469DF8140000EB400222
:1056500002EBC00005EBC000C1659DF8140000EB33
:10566000400101EBC00005EBC00004669DF814008A
:1056700000EB400101EBC00005EBC000C16DD1B1F2
:105680000020002C05D91AF800200A54401CA04222
:10569000F9D302AAB9F1000F1CD0C2208DF808007E
:1056A0000020C10024FA01F113181971401CC0B286
:1056B0000428F6D337E08AA0009041F6C92340F2CF
:1056C000A5723DA1019446A0FFF732F807B0FE2075
:1056D000BDE8F08F042C19D8C4F10400232141EA5D
:1056E00080008DF8080004209DF8141001EB4103A0
:1056F00003EBC10105EBC1010B1893F838301354CB
:10570000401CC0B20828F7D38C630CE021208DF830
:1057100008000020C10024FA01F113181971401C7F
:10572000C0B20428F6D38DF809804FEA18208DF80E
:105730000A008DF80B709DF81400139900EB4002DD
:1057400002EBC00005EBC000C16702AB0221284696
:10575000049A0BF01DFA98B16DA0009041F6D12388
:1057600040F2DE7214A101961DA0FEF7E1FF9DF844
:10577000141028460AF094FF07B0FF20BDE8F08F10
:1057800007B00020BDE8F08F53656E642053444F8E
:1057900020746F20777269746520696E2074686563
:1057A0002064696374696F6E617279206F66206E20
:1057B0006F6465203A2000002E2E5C4D6964646C95
:1057C0006577617265735C63616E66657374697633
:1057D000616C5C7372635C73646F2E630000000025
:1057E000257328256429203A2030782558202573F0
:1057F000203078256C580D0A000000002020202061
:105800002020202020202020202020202020202098
:105810002020202020202020202020202020204167
:105820007420696E646578203A20000020202020D2
:105830002020202020202020202020202020202068
:105840002020202020202020202020202020207305
:105850007562496E646578203A200000202020207F
:105860002020202020202020202020202020202038
:105870002020202020202020202020202020206EDA
:1058800062206279746573203A2000006854010830
:1058900053444F206572726F72203A20436F6D6DD2
:1058A000756E69636174696F6E20796574206573C4
:1058B0007461626C69736865642E2077697468200E
:1058C0006E6F6465203A20005472616E736D697367
:1058D00073696F6E206F6E206C696E65203A2000D0
:1058E00053444F2E204572726F722E20436F756C99
:1058F00064206E6F7420616C6C6F636174652065E9
:105900006E6F756768206279746573203A200000B5
:1059100053444F2E204572726F72207768696C6510
:105920002073656E64696E672053444F20746F2046
:105930006E6F6465203A20002DE9F04182B0054683
:10594000089C0E46174698464BA0009042F6093335
:1059500031224EA1019558A0FEF7EAFE5DA000900D
:1059600042F61033322249A1019653A0FEF7E0FE21
:105970005E48211A844200F047800CDC5C48201805
:1059800037D0A0F57F40FE381DD0A0F5003041385B
:105990000BD100F04FB86FF4003008181ED020284B
:1059A00000F05380212800F05B8052A0009042F666
:1059B00020334B2235A101943FA0FEF7B9FE02B07F
:1059C0000020BDE8F08151A0009042F6113335224D
:1059D0002EA1019538A0FEF7ABFEF0E750A0009095
:1059E00042F61233382229A1019633A0FEF7A0FE19
:1059F000E5E750A0009042F613333B2223A1019526
:105A00002DA0FEF795FEDAE754A0009042F614337D
:105A10003E221EA1019728A0FEF78AFE5AA0009000
:105A200042F615333F2219A1CDF8048022A0FEF7DB
:105A30007FFEC4E75CA0009042F61633422213A119
:105A400001951DA0FEF774FEB9E762A0009042F632
:105A5000173345220DA1019417A0FEF769FEAEE7AA
:105A600068A0009042F61833482208A1019412A0C1
:105A7000FEF75EFEA3E7000044696374696F6E6120
:105A8000727920696E646578203A20002E2E5C4D74
:105A90006964646C6577617265735C63616E666589
:105AA00073746976616C5C7372635C6F626A616364
:105AB0006365732E63000000257328256429203A4E
:105AC0002030782558202573203078256C580D0A11
:105AD00000000000202020202020202020202073F3
